:020000040800F2
:100000005807002045010008BF2500080521000809
:10001000BD25000811090008F92C000800000000A7
:100020000000000000000000000000001F27000882
:1000300013090008000000001D2700082127000800
:100040005F0100085F0100085F0100085F01000810
:100050005F0100085F010008150900081B0900087E
:100060005F0100085F0100085F0100085F010008F0
:100070005F0100085F0100085F0100085F010008E0
:100080005F0100085F0100085F0100085F010008D0
:100090005F0100085F0100085F0100085F010008C0
:1000A0005F010008852700085F0100085F01000864
:1000B0005F010008912700085F0100085F01000848
:1000C0005F0100085F0100085F0100085F01000890
:1000D0005F010008D52C0008E12C0008ED2C000879
:1000E0005F0100085F0100085F0100085F01000870
:1000F000B52700085F0100085F0100085F010008E4
:100100005F0100085F0100085F0100085F0100084F
:100110005F0100085F0100089D270008A92700086B
:100120005F0100085F0100085F0100085F0100082F
:10013000DFF80CD000F05CFB0048004729360008CF
:10014000580700200648804706480047FEE7FEE7BC
:10015000FEE7FEE7FEE7FEE7FEE7FEE7FEE7FEE777
:100160008327000831010008202A04DB203A21FA05
:1001700002F00021704721FA02F3D040C2F12002C0
:100180009140084319467047D2B201E000F8012BB4
:10019000491EFBD270470022F6E710B513460A4607
:1001A00004461946FFF7F0FF204610BDF0B480EA80
:1001B0000102D40F4200B2EB410F02D202460846C0
:1001C00011464A0042D0C30DDDB2C1F3C752AD1A89
:1001D000202D35DAC1F3160141F4000204B1524278
:1001E000C5F1200602FA06F12A411044B3EBD05FB4
:1001F00023D0C4B1012DA0EBC35009DCF0BC4FF0FB
:10020000004202EAC352DBB200F5000000F00AB976
:10021000400000F1807000EBC350A0F1807040EA14
:10022000D170490009E0490841EAC071A0EBC35010
:1002300000F50000400800EBC350F0BC00F0E9B846
:100240006142012202EB4101001BF6E7F0BC70475E
:1002500081F00041AAE780F00040A7E780EA0102B0
:1002600010B502F00043400022D04A001FD0010E1A
:1002700001EB1261C0F35600C2F3560240F40000D5
:1002800042F40002A0FB022000047F39140400D0D5
:10029000401C50EA124001D44000491EC2B20C0674
:1002A00004EBD010401C4008802A02D003E000205C
:1002B00010BD20F00100002900DA0020184310BD15
:1002C000C10F80EAE0700844CA079623002100F0BD
:1002D000A9B896230022114600F0A4B800F000420D
:1002E00020F00040C10DC0F3160040F400007F294B
:1002F00001DA00207047962903DCC1F19601C8405D
:1003000001E096398840002AF4D04042704720F03E
:100310000040C10DC0F3160040F400007F2901DA4F
:1003200000207047962903DCC1F19601C840704750
:1003300096398840704700F0004230F000400AD003
:10034000C10D01F56071C0F3160042EA0151C20807
:10035000400711437047002001467047002801DB29
:10036000C0F10040002901DBC1F10041814270472A
:10037000002801DBC0F10040002901DBC1F1004190
:100380008842704730B50B460146002020220124E8
:1003900009E021FA02F59D4205D303FA02F5491B53
:1003A00004FA02F52844151EA2F10102F1DC30BD69
:1003B0002DE9F05F0546002092469B46884606469A
:1003C000814640241BE02846414647462246FFF727
:1003D000CBFE53465A46C01A914110D311461846D7
:1003E000224600F017FA2D1A67EB01084F46224605
:1003F0000120002100F00EFA17EB00094E41201EEB
:10040000A4F10104DFDC484631462A464346BDE8F4
:10041000F09F0029A8BF7047401C490008BF20F08A
:100420000100704710B4B0FA80FC00FA0CF050EAFA
:10043000010404BF10BC704749B1CCF1200421FA7B
:1004400004F411FA0CF118BF012121430843A3EB76
:100450000C01CB1D4FEA00614FEA102042BF002083
:1004600010BC704700EBC35010440029A4BF10BC5F
:100470007047401C490008BF20F0010010BC7047C5
:100480002DE9FE4F804681EA0300C00F0C46009024
:1004900021F0004123F00045B8EB0200A94105D24C
:1004A0004046214690461C460B46024623F000403B
:1004B000104347D0270DC7F30A00C3F30A51029037
:1004C000401A019040286BDAC3F3130040F4801BFC
:1004D0000098924620B10023D2EB030A63EB0B0B8A
:1004E00001985946C0F14002504600F093F9064683
:1004F0000D4650465946019A00F09BF910EB080052
:100500006141002487EA115284EAE7731A4340D01C
:10051000009A62B3019A012A4FEA075215DC001BC8
:1005200061EB02014FF0004202EA0752CDE90042BE
:10053000001C41F5801132462B4600F09BF903B0B8
:10054000BDE8F08F40462146F9E7001B61EB020150
:10055000001C41F5801300185B412018A2F500171C
:1005600047EB030140EAD570B6196D4111E06D0803
:100570004FEA360645EAC0754FEA0752001B61EBA9
:100580000201001C41F5801149084FEA30000019B2
:10059000514132462B4603B0BDE8F04F00F05BB945
:1005A0000098012240000023D0EB020263EBE073CD
:1005B000009821464FEAE074B8EB000061EB0401BB
:1005C000E9E783F000435BE781F0004158E72DE95C
:1005D000FE4F81EA030404F0004421F0004100943E
:1005E0004FF0000B23F0004350EA01045ED052EAC2
:1005F00003045BD0C3F30A54C1F30A552C44A4F29C
:10060000F3340194A0FB0254C1F3130141F48011AF
:10061000C3F3130343F4801301FB024400FB034EB6
:10062000840A970A44EA815447EA8357A4FB07687F
:1006300002958D0A05FB07854FEA932C04FB0C54A9
:100640002705029D4FEA065847EA1637B5EB08051D
:100650006EEB070C870E920E47EA811742EA83126F
:10066000A7FB0201B6EB0B0164EB00042B0D43EA80
:100670000C335E1844EB1C50DA465146E7FB02018E
:10068000C5F313044FEA0B3343EA14534FEA043221
:10069000019C43EA0603A4F10C040294009CCDE9FA
:1006A00000B400F0E7F803B0BDE8F08F0020014689
:1006B000F9E72DE9F04D81EA030404F0004B21F045
:1006C000004514464FF0000A23F0004150EA0502AD
:1006D00020D054EA01021DD0C5F30A570246C5F3E3
:1006E0001303C1F31300C1F30A5640F4801543F419
:1006F0008013A7EB0608101BD64608F2FD3873EBF3
:10070000050002D308F1010801E092185B41B8F13D
:10071000000F03DA00200146BDE8F08D00204FF401
:100720008011064684460EE0171B73EB050705D3C0
:10073000121B63EB050306434CEA010C49084FEA20
:10074000300092185B4150EA0107EDD152EA0300F4
:1007500012D082EA040083EA0501084305D0101B89
:10076000AB4106D20122002306E000224FF00043F5
:1007700002E06FF0010253101AEB06004CEB085137
:1007800010EB0A0041EB0B01BDE8F04D00F063B83F
:10079000C1F30A52C1F3130140F2FF3341F4801157
:1007A0009A4202DA00200146704740F233439A42EF
:1007B000A2F2334202DC5242FFF7D6BC00F02AB864
:1007C00030B5041E71F1000404DB4FF000444042D8
:1007D00064EB0101141E73F1000405DB1C464FF0AD
:1007E0000043524263EB0403994208BF904230BD7C
:1007F000064C074D06E0E06840F0010394E807006E
:1008000098471034AC42F6D3FFF796FCEC40000852
:100810000C410008202A04DB203A00FA02F10020F3
:1008200070479140C2F1200320FA03F3194390402E
:100830007047202A06DBCB17203A41FA02F043EA40
:10084000E07306E041FA02F3D040C2F12002914089
:1008500008431946704710B5141E73F1000408DAF6
:10086000401C41F1000192185B411A4301D120F074
:10087000010010BD2DE9F04D92469B4611B1B1FA31
:1008800081F202E0B0FA80F220329046FFF7C2FF18
:1008900004460F4640EA0A0041EA0B0153465A4615
:1008A000084313D0114653EA010019D0C8F14002A1
:1008B0005046FFF759FC05460E46504659464246FB
:1008C000FFF7A8FF084305D0012004E02046394681
:1008D000BDE8F08D0020054346EAE0762C4337431F
:1008E0000A986305E40AA0EB08000022FD0A44EA26
:1008F00047540A3002D500200146E9E701051019E6
:100900006941DDE9084500196941BDE8F04DA2E7FC
:10091000FEE77047012000F0DFB8022000F0DCB8ED
:1009200072B6FEE710B590F821100022022905D01A
:100930000421816380F82020012010BD01680B682C
:1009400023F00E030B6001680B6823F001030B60BA
:1009500090F84030C46B012101FA03F3636080F822
:10096000211080F82020104610BD00002DE9F05F16
:1009700090F821100024022903D00421816301246E
:1009800085E001680A6822F00E020A6001680A68C0
:1009900022F001020A603F4E3E4FB215DFF8F4C06C
:1009A000DFF8F090DFF8ECA0DFF8E8B0DFF8E4E083
:1009B0000168783F13011502ACF1640CA9F15009EC
:1009C000AAF13C0AABF1280BAEF1140E4FF48018DB
:1009D000B14227D9B9420ED0614512D049451DD048
:1009E000514518D0594518D0714501D1424615E0FE
:1009F000294EB14201D1012210E0274E1436B142F6
:100A000001D110220AE0244E2836B14206D0224AF3
:100A10003C32914201D11A4600E02A461E49091F84
:100A20000A602BE0B94213D0614517D0494522D066
:100A300051451DD059451DD0714501D142461AE09E
:100A4000B14202D14FF0807215E0134EB14201D194
:100A5000012210E0104E1436B14201D110220AE0FA
:100A60000D4E2836B14206D00B4A3C32914201D19C
:100A70001A4600E02A46074980394A60012180F879
:100A80002110002180F82010416B01B188472046D9
:100A9000BDE8F09F800002400804024070B50446A3
:100AA00000F02CF90546601C02D00448007804448C
:100AB00000F024F9401BA042FAD370BD6000002072
:100AC000022806D103490878401C0870072000F06E
:100AD00077B9704738000020044910B50A6802420F
:100AE00002D00860FFF7ECFF10BD000014040140C5
:100AF0002DE9F84FDFF8C891002409F1040A0AF142
:100B0000040B23460F270BF1040ED1E00125A5406D
:100B100006EA0502AA4276D1DFF8A8C14E68A6EB24
:100B20000C0866452BD00DDC032E34D005DC36B323
:100B3000012E19D0022E2FD11BE0112E16D0122E0D
:100B40002AD119E0B8F5881F19D006DCB8F5803F26
:100B500015D0B8F5801F1FD111E0B8F5001F0ED0D9
:100B6000B8F5041F18D10AE0CB6815E0CB681B1D4F
:100B700012E0CB6808330FE0CB680C330CE08B68D5
:100B80002BB1012B4FF0080303D0456104E004238F
:100B900002E0056100E00023FF2A01D8064601E0DB
:100BA00000F104064FEA840501D9A5F12005D6F825
:100BB000008007FA05FC28EA0C0803FA05F548EA64
:100BC0000508C6F800804D68ED0070D53E4DAE6951
:100BD00046F00106AE61AD6924F0030605F001059B
:100BE00000953A4D06EB050CDCF80850A607360FC9
:100BF00007FA06F825EA0805DFF8D480404503D156
:100C00004FF0000825E052E0DFF8C880404502D1EF
:100C10004FF001081DE0DFF8C080404502D14FF0E1
:100C2000020816E0DFF8B480404502D14FF0030817
:100C30000FE0DFF8AC80404502D14FF0040808E037
:100C4000DFF8A080404502D14FF0050801E04FF0E9
:100C5000060808FA06F848EA0508CCF808804D6846
:100C6000D9F80060ED034D4601D5164300E09643E8
:100C70002E604D68DAF80060AD03554601D5164385
:100C800000E096432E604D68DBF80060ED025D46A3
:100C900001D5164300E096432E604D68DEF80060F3
:100CA000AD02754601D5164300E096432E60641CE4
:100CB0000A681646E2407FF429AFBDE8F88F0000CD
:100CC000000401400000111000100240000001402B
:100CD00000080140000C01400010014000140140D8
:100CE00000180140001C01408068084000D001202D
:100CF00070470AB1016170470904FBE70148806849
:100D000070470000600000200248816802781144AA
:100D10008160704760000020074810B5016841F00D
:100D200010010160032000F089F8002000F006F8AF
:100D300000F024F8002010BD0020024070B50D4DD9
:100D400004464FF47A712878B1FBF0F00A4909683B
:100D5000B1FBF0F000F000FB48B9102C07D20022E4
:100D60002146501E00F04AF800206C6070BD012042
:100D700070BD0000600000206C0000200E4808B527
:100D8000816941F001018161816901F001010091F6
:100D9000C16941F08051C161C06900F0805000908C
:100DA000052000F04BF80548416821F0E06141F072
:100DB0000071416008BD00000010024000000140C9
:100DC00000280DDB00F01F02012191404009800046
:100DD00000F1E020C0F88011BFF34F8FBFF36F8F99
:100DE0007047002809DB00F01F02012191404009F3
:100DF000800000F1E020C0F800117047F0B40E4B05
:100E00001B680C46C3F30223C3F10705042D00D968
:100E10000425191D072901D2002300E0DB1E01264D
:100E200006FA05F1491E214099409E40761E164063
:100E30003143F0BC01F072BF0CED00E0064900F058
:100E4000070208684FF6FF03184040EA0220034AF1
:100E500010430860704700000CED00E00000FA0548
:100E60002DE9F0470F46050061D0434E306800F091
:100E70000700B84209D2306820F0070038433060DC
:100E8000306800F00700B84251D128683B4C810718
:100E900012D5400703D5606840F4E06060602878B0
:100EA000000703D5606840F4605060606068A9681E
:100EB00020F0F000084360602878C00728D06868F8
:100EC000012810D02168022810D0890700292EDAC5
:100ED000616821F0030101436160FFF70FFF804665
:100EE00041F288390DE021688903EFE78901EDE7D8
:100EF000FFF704FFA0EB0801494502D90320BDE834
:100F0000F0876068696800F00C00B0EB810FEFD1EA
:100F1000306800F00700B8420BD9306820F00700B5
:100F200038433060306800F00700B84201D001203B
:100F3000E5E72878400705D56068E96820F4E060B7
:100F4000084360602878000706D56068296920F4A6
:100F5000605040EAC100606000F038F86168084AFB
:100F6000C1F30311515CC840064908600648006897
:100F7000FFF7E4FE0020C2E700200240001002401C
:100F8000D44000086C00002064000020044805499B
:100F900000684968044AC1F30221515CC8407047A7
:100FA0006C00002000100240E4400008044805499D
:100FB00000684968044AC1F3C221515CC8407047C7
:100FC0006C00002000100240E440000812A185B02F
:100FD0000FC98DE80F0014A0144A006804905168EE
:100FE000134801F00C03042B10D0082B0ED1C1F3D1
:100FF0008343C9031DF803000AD5516804AAC1F34D
:101000004041515C0A4A5043B0FBF1F005B07047D3
:1010100008494843FAE700000203040506070809E7
:101020000A0B0C0D0E0F1010010200000010024000
:1010300000127A0000093D002DE9F84F040070D03D
:101040002078C04DC00749D06868C0F381000128EE
:1010500007D06868C0F38100022809D16868C0031E
:1010600006D52868800339D560680028E7D035E0C8
:101070006068B0F5803F0BD010B1B0F5A02F11D053
:10108000286820F480302860286820F4802002E05E
:10109000286840F480302860606890B1FFF72EFE29
:1010A00006460AE0286840F480202860F0E700BF88
:1010B000FFF724FE801B642873D828688003F7D5C7
:1010C0000CE0FFF71BFE064605E000BFFFF716FE2B
:1010D000801B6428F0D828688003F7D420789A4EC3
:1010E00080074FF001094FF0000839D5686810F00B
:1010F0000C0F07D06868C0F38100022809D1686826
:10110000C00306D42868800714D52069012808D1B7
:1011100010E02069B0B1C6F80090FFF7EFFD074678
:1011200005E00AE1FFF7EAFDC01B0228C4D82868E1
:101130008007F7D52868616920F0F80040EAC1000F
:1011400028600DE0C6F80080FFF7D8FD074604E0F0
:10115000FFF7D4FDC01B022823D828688007F7D4E6
:10116000207800072CD57948A169D9B1C0F8009042
:10117000FFF7C4FD074604E0FFF7C0FDC01B0228CF
:101180000FD8686A8007F7D571484FF4FA510068A4
:10119000B0FBF1F0009000BF0098411E0091FAD220
:1011A0000EE080E0C0F80080FFF7A8FD074604E0ED
:1011B000FFF7A4FDC01B022875D8686A8007F7D422
:1011C0002078400760D5E8690027C00008D4E869A6
:1011D00040F08050E861E869012700F080500090FD
:1011E0005C480168C90513D40168834641F48071E5
:1011F0000160FFF783FD824606E000BFFFF77EFD3A
:10120000A0EB0A0064284ED8DBF80000C005F5D535
:10121000E06801280AD008B1052813D0286A20F018
:1012200001002862286A20F0040002E0286A40F0E9
:1012300001002862E06841F2883B98B1FFF75EFD4B
:1012400082460BE0286A40F004002862EEE700BF07
:10125000FFF754FDA0EB0A0159455AD8286A8007C8
:10126000F6D50CE0FFF74AFD824605E0FFF746FDA4
:10127000A0EB0A0159454CD8286A8007F6D41FB163
:10128000E86920F08050E861E06988B36968C1F3DB
:101290008101022944D00228C6F8608004D0FFF7FB
:1012A0002DFD044638E034E0FFF728FD074604E052
:1012B000FFF724FDC01B02282BD828688001F7D433
:1012C000206AB0F5803F05D16868A16820F400303D
:1012D00008436860D4E908010843696821F474117F
:1012E00008436860C6F86090FFF708FD044606E012
:1012F00025E000BFFFF702FD001B022809D828687F
:101300008001F7D51BE000BFFFF7F8FC001B0228A7
:1013100002D90320BDE8F88F28688001F4D40EE0DC
:101320000128F7D06868226A00F48031914204D124
:10133000616A00F47010884201D00120EAE70020C1
:10134000E8E70000001002400000424280044242F0
:101350006C0000200070004010B5401EB0F1807F8E
:1013600001D3012010BD4FF0E02460610F21601710
:1013700001F0D4FC0020A06107202061002010BDF6
:101380007047704770B590F83C20012A2CD001249A
:1013900080F83C40022280F83D2003685A689D682E
:1013A00022F070060A6832435A60104B02689A4273
:1013B0000ED00F4B9A420BD0B2F1804F08D00D4B9C
:1013C0009A4205D00C4B9A4202D00C4B9A4204D15F
:1013D000496825F080031943916080F83D40002161
:1013E00080F83C10084670BD022070BD002C014002
:1013F000003401400004004000080040000C0040A0
:1014000010B5040003D094F83D0010B107E00120AE
:1014100010BD002084F83C00204600F01FF8022098
:1014200084F83D00211D206801F0CAF9012084F8EC
:10143000460084F83E0084F83F0084F8400084F8B9
:10144000410084F8420084F8430084F8440084F8A2
:10145000450084F83D00002010BD000008B51E4A7C
:1014600001681E4891420ED1816941F40061816199
:101470008069002200F40060009003211920FFF72A
:10148000BDFC192022E0164A91420ED1C16941F0FB
:101490001001C161C069002200F01000009003211A
:1014A0003620FFF7ABFC362010E00E4A914211D1F6
:1014B000C16941F02001C161C069002200F0200033
:1014C000009002213720FFF799FC3720BDE8084043
:1014D000FFF787BC08BD0000002C0140001002404F
:1014E000001000400014004090F83D10012901D088
:1014F00001207047022180F83D100168CA6842F05F
:101500000102CA6000680E4988420ED00D49884227
:101510000BD0B0F1804F08D00B49884205D00B4961
:10152000884202D00A49884204D1816801F007014B
:10153000062903D0016841F00101016000207047D5
:10154000002C01400034014000040040000800402D
:10155000000C004070B5044690F83C00012817D0FC
:10156000012584F83C50022084F83D002068826800
:1015700022F0770222F47F4282600868502830D03F
:101580000DDC20284DD005DC98B310283BD148E075
:10159000022070BD302844D0402834D139E0602882
:1015A00028D0702806D0B0F5805F2CD0B0F5005F51
:1015B00029D10AE0CB68D1E90121206801F053F973
:1015C0002068816841F0770109E0CB68D1E9012109
:1015D000206801F048F92068816841F48041816009
:1015E00011E0CA684968206801F012FA50212068A9
:1015F00007E016E0CA684968206801F01AFA60211D
:10160000206801F03AF984F83D50002084F83C004D
:1016100070BDCA684968206801F0FAF94021206865
:10162000EFE7226801461046EBE72DE9F0410D4651
:10163000040003D094F83D0018B108E00120BDE893
:10164000F081002084F83C00204600F041F80220A0
:1016500084F83D002068816844F20702914381606C
:10166000211D206801F0ACF8226890689169166A23
:101670002B68AF69034340F20330814341EA0721FD
:10168000A868EF6908434FF6FC418843E96840EADF
:101690000720014328692F6A000140EA0730084308
:1016A00069686D6926F0220646EA051529439360AC
:1016B0002268906154F8460B0162012004F81F096A
:1016C000E0752076E0762077A0750020B7E700006F
:1016D00000B585B000210091019102910391224B48
:1016E00002682248C0219A421BD1C26942F002021C
:1016F000C261C26902F002020492826942F00402ED
:1017000082618069009100F00400049069461848E5
:10171000FFF7EEF9022200211D20FFF76FFB1D20CD
:101720001DE0144B9A421CD1826942F4005282613E
:10173000826902F400520492826942F010028261CE
:101740008069009100F01000049069460A48FFF794
:10175000CFF9022200212C20FFF750FB2C20FFF7AD
:1017600040FB05B000BD0000000400400010024036
:1017700000080140003401400010014070B590F8AD
:101780003E60044690F83F5090F8423090F8432075
:10179000022021B104290ED0012E1BD114E0012E0C
:1017A00018D1012B16D184F83E0084F842000122A2
:1017B0000021206820E0012D0CD1012A0AD184F8F3
:1017C0003F0084F8430014E0012D03D1012B01D127
:1017D000012A01D0012070BD84F83E0084F83F004A
:1017E00084F8420084F8430001220021206801F0BF
:1017F0002DF801220421206801F028F820680168F2
:1018000041F001010160002070BD704770B50446D1
:10181000006801694FF00005C943890715D4C16804
:10182000C943890711D4E91E01610120207720688E
:1018300080698007204602D0FFF7E7FF04E000F050
:10184000DFF8204600F08CF9257720680169C9434C
:10185000490717D4C168C943490713D46FF004017D
:101860000161022020772068806910F4407F2046C3
:1018700002D0FFF7CAFF04E000F0C2F8204600F0F3
:101880006FF9257720680169C943090716D4C16833
:10189000C943090712D46FF00801016104202077C1
:1018A0002068C0698007204602D0FFF7AEFF04E041
:1018B00000F0A6F8204600F053F92577206801696A
:1018C000C943C90617D4C168C943C90613D46FF008
:1018D00010010161082020772068C06910F4407F62
:1018E000204602D0FFF791FF04E000F089F820467F
:1018F00000F036F9257720680169C943C90708D186
:10190000C168C943C90704D1891E0161204600F09E
:1019100083F920680169C943090609D4C168C9432C
:10192000090605D46FF0800101612046FFF728FD0C
:1019300020680169C943490609D4C168C9434906F9
:1019400005D46FF040010161204600F066F920687F
:101950000169C94389060BD4C168C943890607D404
:101960006FF0200101612046BDE87040FFF709BD1E
:1019700070BD000010B586B0002100910191029168
:10198000039103681A4902221A48B3F1804F14D018
:10199000194CA3420FD18B6943F008038B6189690D
:1019A000039201F0080104914FF47071CDE9001227
:1019B0006946FFF79DF806B010BD8B6943F0080338
:1019C0008B618969039201F0080104914FF4406131
:1019D000CDE900126946FFF78BF80848416821F409
:1019E000407141F0E06141F400714160E3E70000C3
:1019F00000100240000C01400008004000000140BF
:101A0000704770B5044690F83C000D4601280AD096
:101A1000012084F83C0042B1042A18D0082A2AD0B8
:101A20000C2A4DD139E0022070BD206800F02EFF55
:101A30002068816941F0080181612068816921F095
:101A400004018161206881692A69114311E02068DD
:101A500000F04CFF2068816941F4006181612068D9
:101A6000816921F480618161206881692A6941EA84
:101A70000221816124E0206800F06EFF2068C169C6
:101A800041F00801C1612068C16921F00401C16110
:101A90002068C1692A69114311E0206800F090FFB5
:101AA0002068C16941F40061C1612068C16921F405
:101AB0008061C1612068C1692A6941EA0221C1616E
:101AC000002084F83C0070BD10B5040003D094F8E9
:101AD0003D0010B107E0012010BD002084F83C005B
:101AE000204600F01FF8022084F83D00211D2068E8
:101AF00000F066FE012084F8460084F83E0084F879
:101B00003F0084F8400084F8410084F8420084F8E3
:101B1000430084F8440084F8450084F83D00002028
:101B200010BD000008B501680B48B1F1804F0BD023
:101B30000A4A914207D1C16941F00401C161C069FB
:101B400000F00400009008BDC16941F00101C161CD
:101B5000C06900F00100F5E70010024000080040F5
:101B60007047000010B50446022249B104290ED086
:101B7000082913D094F84100012816D0012010BD87
:101B800094F83E000128F9D184F83E200FE094F843
:101B90003F000128F2D184F83F2008E094F840008B
:101BA0000128EBD184F8402001E084F84120012293
:101BB000206800F04BFE13492068134A884201D088
:101BC000904203D1436C43F400434364206888424D
:101BD0000DD090420BD0B0F1804F08D00B49884215
:101BE00005D00B49884202D00A49884204D1816855
:101BF00001F00701062903D0016841F001010160ED
:101C0000002010BD002C01400034014000040040C1
:101C100000080040000C0040704770477047704754
:101C200010F83D1F4078084370470000F8B502687F
:101C300004461068D168536910F00F0F4FF000058B
:101C400054D003F0010601F4907737435FD0C20708
:101C500005D0CA0503D5226C42F001022264420776
:101C600005D5DA0703D0226C42F002022264820713
:101C700005D5DA0703D0226C42F004022264020781
:101C800007D501F02002324303D0226C42F0080253
:101C90002264226C002A35D0800604D5880602D53D
:101CA000204600F0F8FE20684069216CC0F38010E7
:101CB00001F008010143204625D000F0D4FE206841
:101CC000416949061BD5416921F040014161A06B82
:101CD000A8B158494163A06BFEF748FE002811D017
:101CE000A06B416B01B0BDE8F040084783060ED5FC
:101CF0008B060CD52046BDE8F84000F0CCBE20464F
:101D0000FFF78DFFF8BDFFF78AFF2564F8BD266B4E
:101D10002023012E52D1C60650D5CE064ED51068CE
:101D200050680090506940062AD5A16B0868406849
:101D30000004000CEAD0A68D8642E7D9E0858869C8
:101D4000202818D0D06820F48070D06020684169C5
:101D500021F0010141612068416921F040014161A8
:101D600084F83E3025632068C16821F01001C1600D
:101D7000A06BFEF7D7FDA08DE18D401A81B219E06E
:101D8000A08DE18D401A81B2E08D0028BED00029DF
:101D9000BCD0D06820F49070D0602068426922F0F6
:101DA0000102426184F83E3025632068C26822F057
:101DB0001002C2602046FFF731FFF8BD05062BD5A3
:101DC0000D0629D594F83D002128F6D1A068B0F57C
:101DD000805F01D12069B0B1206A411C2162216875
:101DE00000784860E08C401E0004000CE084E4D1E0
:101DF0002068C16821F08001C1602068C16841F09D
:101E00004001C160F8BD206A0088C0F3080050603E
:101E1000206A801C2062E5E74006F3D54806F1D52C
:101E2000D168204621F04001D16084F83D3000F0B7
:101E300068F9F8BD572A000870B5040004D094F87A
:101E40003D00002510B106E0012070BD84F83C5033
:101E5000204600F023F8242084F83D002068C16863
:101E600021F40051C160204600F08AFE206801691B
:101E700021F4904101612068416921F02A0141610A
:101E80002068C16841F40051C1602564202084F8B5
:101E90003D0084F83E00002070BD0000F0B585B024
:101EA000002400940194029403940368464F022096
:101EB00046490322464D4602BB4225D18B6943F475
:101EC00080438B618B6903F4804304938B6943F0F7
:101ED00004038B618969039201F0040104910102FA
:101EE000CDE9001069462846FEF702FECDE9006400
:101EF000694628460294FEF7FBFD01221146252083
:101F0000FEF77CFF252028E0324FBB4229D1CB6968
:101F100043F40033CB61CB6903F4003304938B6942
:101F200043F004038B618969039201F00401049179
:101F30000421CDE9001069462846FEF7D9FD0820A6
:101F4000CDE90004694628460294FEF7D1FD02223D
:101F500001212620FEF752FF2620FEF742FF05B0A2
:101F6000F0BD1D4DAB42FAD1CB6943F48023CB6168
:101F7000CB6903F4802304938B6943F010038B61D6
:101F80008969164D01F01001CDE90321CDE900600A
:101F900069462846FEF7ACFDE814CDE90004694621
:101FA00028460294FEF7A4FD0D48416821F0300157
:101FB00041F0E06141F01001416000220121272041
:101FC000FEF71CFF2720C8E7003801400010024040
:101FD000000801400044004000480040001001405B
:101FE0000000014090F83E30202B0ED159B152B183
:101FF00090F83C30012B08D0012380F83C300023BE
:10200000036300F019BE01207047022070470000F2
:1020100010B50B4A01680B48914202D1807900F05B
:10202000CFFA08490122891D0748FFF7DBFF054960
:102030000122BDE81040491D0448FFF7D3BF00004E
:102040000048004038000020140300208C020020CB
:102050002DE9F843044690F83D001F4616460D460C
:1020600020284CD1C5B1BEB194F83C00012846D01F
:10207000012084F83C004FF00008C4F84080212083
:1020800084F83D00FEF73AFEA6848146E684A06807
:10209000B0F5805F03D004E00120BDE8F88320693B
:1020A00028B12E465FF0000584F83C800EE0002643
:1020B000FAE78021204600F0DAFDA0B9AEB116F8AB
:1020C000010B21684860E08C401EE084E08C4B46A8
:1020D0004FF0000200970028EBD14FF0400120465E
:1020E00000F0C5FD30B10320D7E735F8020BC0F38F
:1020F0000800E6E7202084F83D000020CDE702201C
:10210000CBE77047FEE700002DE9F04385B00025DE
:102110003D480095019502950395816941F02001A4
:102120008161816901F020010491816941F0100110
:102130008161816901F010010491816941F004011C
:102140008161816901F004010491816941F0080114
:1021500081618069DFF8B49000F0080004900022EB
:1021600041F630014846FEF7C4FDDFF8A4800022A6
:1021700048F203014046FEF7BCFD4FF44E70CDE936
:102180000005694623480295FEF7B2FC0327224862
:1021900001240097CDE9010469464846FEF7A8FCF2
:1021A000302002268DE8710069464846FEF7A0FC03
:1021B00001AA009782E8700069464046FEF798FC45
:1021C000E0038DE85100694640460394FEF790FC19
:1021D000F8028DE85100694648460394FEF788FCF2
:1021E000032211460620FEF709FE0620FEF7F9FD40
:1021F000032201210720FEF701FE0720FEF7F1FD73
:1022000005B0BDE8F0830000001002400008014066
:10221000000C0140001001400000211010B586B0F4
:1022200000241848009401940294039404941449DF
:102230000594016041F61F41C0E901146321C0E922
:1022400003148021C0E90541FFF7DAF808B1FEF771
:1022500067FB4FF48050009069460A48FFF77AF90F
:1022600008B1FEF75DFB049404A906480594FFF746
:1022700089F8002801D0FEF753FB06B010BD00001E
:10228000002C01409400002010B58AB0002407946F
:102290001C2168460894FDF77EFF1A484FF08041E4
:1022A00001600221C0E9011440F2E731C0E90314E2
:1022B00080218161FFF708FC08B1FEF731FB07942C
:1022C00007A910480894FFF75DF808B1FEF728FB4E
:1022D0006020CDE90004029408226946094804946C
:1022E000FFF78FFB08B1FEF71BFB0C226946054880
:1022F000FFF787FB08B1FEF713FB0248FFF73AFB35
:102300000AB010BDDC00002010B58CB02421684656
:10231000FDF741FF00241648099414490A94C0E9C6
:1023200000144FF6FF71C0E902410461846103208B
:10233000CDE900040120CDE9020404210491CDE996
:102340000540CDE9074169460948FFF76EF908B134
:10235000FEF7E6FA099409A905480A94FFF712F86E
:10236000002801D0FEF7DCFA0CB010BD00040040DC
:102370002401002010B58AB0002407941C2168466F
:102380000894FDF708FF2348214901600221C0E9B4
:10239000011440F2E731C0E9031480218161FFF7A5
:1023A00093FB08B1FEF7BCFA079407A919480894F3
:1023B000FEF7E8FF08B1FEF7B3FA6020CDE90004AC
:1023C00002940022694613480494FFF71AFB08B1EF
:1023D000FEF7A6FA042269460E48FFF712FB08B181
:1023E000FEF79EFA082269460A48FFF70AFB08B181
:1023F000FEF796FA0C2269460648FFF702FB08B181
:10240000FEF78EFA0348FFF7B5FA0AB010BD0000D8
:10241000000800406C0100201CB500240F48009407
:102420000D490194016041F61F41C0E9011441F2D8
:1024300087318461C160FEF7E3FF08B1FEF770FAEF
:102440000094694605480194FEF79CFF002801D0DE
:10245000FEF766FA1CBD000000100040B401002029
:102460001CB500240E4800940C490194016041F60B
:102470001F41C0E90114C7218461C160FEF7C0FF9C
:1024800008B1FEF74DFA0094694605480194FEF73D
:1024900079FF002801D0FEF743FA1CBD001400406C
:1024A000FC01002010B58CB024216846FDF773FEB6
:1024B00000241748099415490A94C0E900144FF6FE
:1024C000FF71C0E902410461446184610320CDE9E8
:1024D00000040120CDE9020404210491CDE9054066
:1024E000CDE9074169460A48FFF79FF808B1FEF7B2
:1024F00017FA099409A906480A94FEF743FF002831
:1025000001D0FEF70DFA0CB010BD00000034014000
:10251000440200200C4810B50A4901604FF4E13133
:102520004160002181600C22C160C0E90412816118
:10253000C161FFF781FC002803D0BDE81040FEF721
:10254000EFB910BD003801408C0200200C4810B5D6
:102550000A4901604FF4E1314160002181600C22A1
:10256000C160C0E904128161C161FFF765FC002808
:1025700003D0BDE81040FEF7D3B910BD00440040C1
:10258000D00200200C4810B50A4901604FF4E13137
:102590004160002181600C22C160C0E904128161A8
:1025A000C161FFF749FC002803D0BDE81040FEF7E9
:1025B000B7B910BD0048004014030020FEE7FEE755
:1025C000F0B5304901260A46CF7895782E4C6A1C22
:1025D000D3B2002237B1012F08D0022F1AD0032F17
:1025E0003AD005E02C2803D1CE700FE012280AD093
:1025F000CA708A705FF0000024F81020401CC0B23E
:102600000A28F9D3F0BD0220C870122024F8150062
:102610008B70F0BD24F815008B700F2B01D25B2856
:10262000F7D10320C87004EB43000E7110F8122D8F
:102630004A71827812F0FF028A7103790B708379F4
:10264000CB71037A0B72837A4B70037B8B72807B26
:10265000C872DED04A72F0BD04EB450030F8020CBF
:102660005B280AD0CA708A705FF0000024F810203E
:10267000401CC0B20A28F9D3F0BD0A718A70CA7032
:10268000F0BD000000000020740000202DE9F041A2
:102690001E4C26696661FDF7DBFD0546314620616B
:1026A000FDF7D6FDA168FDF7D9FD0646284621684D
:1026B000FDF7D4FD074628466168FDF7CFFDA16907
:1026C000FDF774FD0546A06139463046FDF76EFD05
:1026D0002946FDF76BFDE061E168FDF749FEE06822
:1026E0000AD380F00040E169FDF742FE01D3E069C2
:1026F00003E0E06880F00040E061FDF71CFEBDE80B
:10270000F04102460B4602A000F0F8BA0C0000208F
:102710006F75747075743A25660D0A0070477047BE
:10272000FEF7F2BA30B58FB028216846FDF733FDC9
:1027300014210AA8FDF72FFD01210804CDE900109E
:102740000024029402250491CDE907504FF4E010D3
:1027500009906846FEF770FC08B172B6FEE70F20DC
:10276000CDE90A054FF48060CDE90C4002210AA8AA
:102770000E94FEF775FB002801D072B6FEE70FB08D
:1027800030BD70470148FFF741B8000094000020B9
:102790000148FFF73BB80000240100200148FFF783
:1027A00035B80000B40100200148FFF72FB8000041
:1027B000FC0100200148FFF729B800004402002076
:1027C000F0B502681C4B1D4D1D4E1E4F1E4C4FF0A8
:1027D000804C984209D0A04207D0604505D0A8425D
:1027E00003D0B04201D0B84204D122F0700E4A6842
:1027F00042EA0E02984209D0A04207D0604505D0B7
:10280000A84203D0B04201D0B84203D122F44075AF
:10281000CA682A434D6922F080022A4302608A680E
:10282000C2620A688262984201D0A04201D109695D
:10283000016301214161F0BD002C01400004004012
:1028400000080040000C00400034014010B501F0C9
:102850001F030121046A99408C430462016A9A4073
:102860001143016210BD10B5846842EA032224F4CA
:102870007F440A432243826010BD826822F07002C6
:102880000A4342F00701816070470000F0B5026A18
:1028900022F001020262036A42688469124E24F047
:1028A00073050C682C4323F002058B682B430D4DF8
:1028B000A84201D0B04205D123F00807CB683B43C2
:1028C00023F00403A84201D0B04205D14D6922F49F
:1028D000407215438A692A434260846149684163B2
:1028E0000362F0BD002C014000340140F0B5026AE3
:1028F00022F010020262026A436884690D6824F4BF
:10290000E64444EA05248D6822F0200242EA0512DA
:102910000F4D104EA84201D0B04206D1CF6822F030
:10292000800242EA071222F04002A84201D0B042DF
:1029300007D14D6923F4406343EA85038D6943EA77
:10294000850343608461496881630262F0BD0000D1
:10295000002C014000340140F0B5026A22F480727C
:102960000262026A4368C46922F4007224F07305AB
:102970000C68124E2C438D6842EA05220E4DA84287
:1029800001D0B04206D1CF6822F4006242EA0722A9
:1029900022F48062A84201D0B04207D14D6923F4ED
:1029A000405343EA05138D6943EA05134360C4614C
:1029B0004968C1630262F0BD002C0140003401404F
:1029C00030B5026A22F480520262046A4268C36926
:1029D0000D6823F4E64343EA05238D6824F400548C
:1029E00044EA0534084DA84202D0084DA84204D15B
:1029F0004D6922F4804242EA85124260C36149680F
:102A00000164046230BD0000002C0140003401402C
:102A100010B5036A046A24F001040462846924F096
:102A2000F00444EA021423F00A020A4384610262B9
:102A300010BD10B5036A23F0100303628369046AB2
:102A400023F4704343EA023224F0A00343EA011165
:102A50008261016210BD10B5406A0021C185C18448
:102A6000FFF7DDF810BD0168CA6822F49072CA60F1
:102A700001684A6922F001024A61016B012904D10F
:102A80000168CA6822F01002CA60202180F83E1056
:102A900000210163704708B590F83E10222901D04B
:102AA000022008BD82684FF480539A4201D1016927
:102AB00021B1816A9A421BD04AB10AE00268816A58
:102AC0005268C2F308020A80816A891C08E0026920
:102AD00072B10268526802F07F020A70816A491C72
:102AE0008162C18D491E0904090CC18503D019E01A
:102AF00002685268F1E70168CA6822F02002CA60E1
:102B00000168CA6822F48072CA6001684A6922F0CA
:102B100001024A61202180F83E10016B012903D097
:102B2000FFF776FA002008BD002101630168CA683A
:102B300022F01002CA6001680A68D20602D50A684B
:102B400049680091818DFFF769F8EBE72DE9F041C5
:102B500000240D460646671E0CE00848FFF760F8A3
:102B60000128FAD031193B4601220448FFF770FAD8
:102B7000641CE4B2AC42F0D3BDE8F0818C020020CA
:102B800070B5044600680169E26821F440511143C0
:102B900001612169A0680843616908432168CA6826
:102BA00041F20C639A430243CA6020684169A269FA
:102BB00021F44071114341611E492068884202D1CD
:102BC000FEF7F4F901E0FEF7E1F900EBC00101EBDB
:102BD0000012606864218000B2FBF0F3B3FBF1F3F4
:102BE0006FF018067343B2FBF0F5B2FBF0F605EB9D
:102BF0008305322303EB0515B5FBF1F5B6FBF1F6C2
:102C000005F0F00505EB0615B2FBF0F6B2FBF0F0AF
:102C1000B0FBF1F06FF01802504306EB800003EBBD
:102C20000010B0FBF1F0216800F00F00284488602C
:102C300070BD00000038014081628285C28500219C
:102C40000164222280F83E2080F83C100168CA68A6
:102C500042F48072CA6001684A6942F001024A6126
:102C60000068C16841F02001C160002070472DE973
:102C7000F041984617460E460446069D1DE0681C26
:102C80001BD02DB1FEF73AF8A0EB0800A84214D9EA
:102C90002068C16821F4D071C1602068416921F0C9
:102CA00001014161202084F83D0084F83E000020AD
:102CB00084F83C000320BDE8F0812068006836EA13
:102CC000000004D00020B842D9D00020F3E7012052
:102CD000F9E700000148FEF7A9BF00008C020020C0
:102CE0000148FEF7A3BF0000D00200200148FEF714
:102CF0009DBF000014030020FEE700000FB4054B49
:102D000010B503A9044A029800F0EAF810BC5DF877
:102D100014FB000011360008700000200907090E9E
:102D2000002804DB00F1E02080F80014704700F078
:102D30000F0000F1E02080F8141D704702E008C881
:102D4000121F08C1002AFAD170477047002001E025
:102D500001C1121F002AFBD1704700002DE9FF5F5F
:102D600082B00021DDE90430020DDDF840B00343FC
:102D700018D044F61050A2F2FF32424315141198B5
:102D800001281FD0A5EB0B00401C5FEA000A4FF0A2
:102D900000064E4FDFF83891B046504615D5CAF1BF
:102DA000000413E0119801244AA3012801D16FEA1D
:102DB0000B010298119AC0E90031C0E9024206B045
:102DC000BDE8F09FCBF10000DFE704460021404A58
:102DD000491842EB0450CDE9001012E0E00707D09B
:102DE00032463B4640464946FDF7F1FB8046894660
:102DF00032463B4610461946FDF7E9FB06460F46AC
:102E00006410002CEAD1DDE90401DDE90023BAF108
:102E1000000F06DAFDF7DBFB42464B46FDF7D7FB1A
:102E200005E0FDF746FC42464B46FDF742FC0446F2
:102E30000E460022284BFDF7C3FC03D84FF0FF30AD
:102E4000014607E00022254B20463146FDF718FBDE
:102E5000FDF79EFC102409E0002C0ADB0A22002367
:102E6000FDF7A6FA039B30321A55641E50EA0102A0
:102E7000F2D1641C039AC4F111031444119A012A7B
:102E800003D0012208430DD10AE0084304D00020FA
:102E90004FF0110B119072E7A3EB0B056D1E0DE0C7
:102EA0005B4504DD4FF0000205F1010504E003DAA3
:102EB0004FF00002A5F10105002AECD0029811990B
:102EC000C0E90231C0E9004579E700000000144084
:102ED0000000F03F300000000000F0430000E03F41
:102EE0002DE9FF4F95B09B468946064600250FE227
:102EF000252877D100242746F84A0121059400E0CF
:102F0000044316F8013F203B01FA03F01042F7D1C9
:102F100030782A2811D06FF02F033078A0F13002DA
:102F2000092A16D8059A44F0020402EB820203EB48
:102F300042021044761C0590EFE759F8042B0592E5
:102F4000002A03DA504244F40054059044F002048D
:102F5000761C30782E2816D116F8010F44F00404A0
:102F60002A280DD06FF02F023078A0F13003092B02
:102F700009D807EB870302EB4303C718761CF3E776
:102F800059F8047B761C30786C280FD006DC4C286E
:102F900017D068280DD06A2814D104E0742810D006
:102FA0007A280FD10DE044F400140AE044F48014B0
:102FB00001E044F440147278824202D104F5801496
:102FC000761C761C307866280BD013DC582877D016
:102FD00009DC002875D04528F6D04628F4D04728CB
:102FE0001AD19DE118E0632835D0642879D065288E
:102FF00012D195E1702873D008DC6728F1D06928D8
:103000006FD06E280DD06F2806D1B5E073282CD074
:10301000752875D0782874D05A46179990476D1C3A
:1030200075E1C4F30250022809D003280DD0D9F865
:10303000001004280DD00D6009F1040967E1D9F8EA
:103040000010EA17C1E90052F6E7D9F800100D8028
:10305000F2E70D70F0E719F8041B8DF8001000205E
:103060008DF80100EA46012003E059F804AB4FF067
:10307000FF3061074FF0000102D40DE008F10101BB
:103080008846B9420FDA8045F8DB1AF808100029A3
:10309000F4D108E008F1010188468142FADB1AF810
:1030A00008100029F6D105985B46A0EB08072146D9
:1030B0003846179A00F094FA284400EB080507E018
:1030C0004DE029E10DE01AF8010B5A461799904797
:1030D000B8F10108F7D25B4621463846179A13E14A
:1030E00042E00A220092C4F302524FF0000A022A80
:1030F00008D059F804CB032A4FEAEC710AD00DE04E
:1031000029E02AE009F1070121F00702F2E802C1F3
:10311000914609E00FFA8CFC4FEAEC71042A03D1C6
:103120004FFA8CFC4FEAEC71002907DA0A460021BD
:10313000DCF1000C61EB02012D2202E0220504D536
:103140002B228DF80420012203E0E20701D0202287
:10315000F7E7904659E00A2102E010220DE0102125
:103160004FF0000A00910BE010224FF0000A44F0EB
:1031700004040827009203E008224FF0000A00929E
:10318000C4F30252022A05D059F804CB0021032AC5
:1031900008D009E009F1070121F00702F2E802C1B5
:1031A000914605E01FFA8CFC042A01D10CF0FF0CBB
:1031B0004FF00008220728D5702806D0009B83F026
:1031C000100353EA0A0305D00EE040228DF80420D4
:1031D000012208E05CEA010206D030228DF80420CA
:1031E0008DF8050002229046009B83F0080353EA05
:1031F0000A030AD15CEA010201D1620705D5302237
:103200008DF804204FF001087F1E582804D034A008
:1032100003900EA802900DE036A0F9E753466046F1
:10322000009AFDF7C5F884460398825C0298401E18
:10323000029002705CEA0100F0D1029806A9081A17
:1032400000F1200A600702D524F4803400E0012751
:10325000574502DDA7EB0A0000E0002000EB0A0161
:10326000009005984144401A0590E00306D45B465F
:103270002146179A059800F0B3F90544002706E0A7
:1032800001A85A46C05D179990476D1C7F1C4745A1
:10329000F6DBE0030CD55B462146179A059800F053
:1032A0009FF9054404E030205A46179990476D1C59
:1032B0000099481E00900029F5DC08E00298029968
:1032C0005A460078491C0291179990476D1CBAF133
:1032D0000001AAF1010AF1DC65E100000928010002
:1032E000303132333435363738396162636465667C
:1032F000000000003031323334353637383941423E
:10330000434445460000000000F058F90544761C8F
:10331000307800287FF4ECAD19B02846BDE8F08F76
:10332000620700D4062709F1070222F0070CFCE827
:103330000223E14603F000485FEA080C02D00FF2D6
:10334000702C0DE05FEA045C02D50FF2682C07E0F8
:103350005FEAC47C02D00FF2602C01E0AFF2700C87
:103360004FF0FF3823F00043CDF850C065280CD053
:1033700006DC452809D046281DD047283DD13DE030
:10338000662818D067287ED138E00021112F01DB94
:10339000112000E0781CCDE9000106A90EA8FFF776
:1033A000DDFCDDE90F010E9A03910021009207F187
:1033B000010A04914DE04FF000400097CDE9011063
:1033C00006A90EA8FFF7CAFCDDE90F0203920E9BC7
:1033D00011990022DDF80CA00093049211B9791C18
:1033E00000EB010AB7EB0A0004D4C0F1FF3007F18B
:1033F000010A0490AAEB0700019044E0012F00DAD3
:1034000001270021112F01DD112000E03846CDE910
:10341000000106A90EA8FFF7A1FCDDE90F010E9A35
:103420000391002104910092BA4621070CD403991C
:10343000514500DA8A46BAF1010F05DD009AAAF17A
:103440000101515C302908D0B84202DA10F1040FB2
:1034500006DA0121CDE9011015E0AAF10101E9E741
:10346000002805DC049901440491AAEB000102E064
:10347000411C514500DD8A460499401A401C0190C8
:103480004FF000400290200704D40198504501DB22
:10349000CDF8048000208DF84F0002980DF14F0701
:1034A000B0F1004F25D02B200E9002984FF002086B
:1034B00000280CDA404202902D200E9007E00A21ED
:1034C0000298FCF75FFF3031029007F8011DB8F158
:1034D0000001A8F10108F2DC02980028EFD1791E62
:1034E0000E980870307800F0200040F0450007F892
:1034F000020D12A8C01B00F107081498007800B153
:10350000012000EB0A01019801EBE07105984144AC
:10351000401A401E0590E00306D45B462146179AE8
:10352000059800F05DF805441498007818B15A46E3
:10353000179990476D1CE00324D55B462146179AE6
:10354000059800F04DF805441CE00498002807DBBE
:10355000DDE90301884203DD0098405C179901E032
:10356000179930205A469047049805F10105401CF0
:1035700004900198401E019004D12E205A461799BC
:1035800090476D1CBAF10001AAF1010ADDDC05E0EB
:1035900017F8010B5A46179990476D1CB8F10001B6
:1035A000A8F10108F4DC5B462146179A0598ABE6C2
:1035B0002D0000002B000000200000002DE9F0414C
:1035C000044600251E461746880404D405E0394603
:1035D0002020B0476D1C641EF9D52846BDE8F08157
:1035E0002DE9F041044600251E469046C80301D54A
:1035F000302700E02027880404D505E041463846FE
:10360000B0476D1C641EF9D52846BDE8F081000066
:1036100013B54FF6FF73012269460248FEF718FD05
:1036200000981CBD8C0200201FB5FDF775FBFFF74D
:1036300079F8FEF769FDFEF767FEFEF79BFEFEF7E1
:10364000EBFEFEF783FFFEF79DFFFEF709FFFEF797
:1036500029FFFEF719FEFEF75DFFFEF7DFFD0821EB
:10366000FD48FEF77FFA0821FC48FEF77BFA0021AF
:10367000FB48FEF783F80421F948FEF77FF80021A4
:10368000F848FEF77BF80421F648FEF777F8F6488D
:10369000FDF72AFF0122F549F548FEF7A3FCF3499F
:1036A0000122491EF348FEF79DFCF3480068FCF731
:1036B00042FE0646F1480F460068FCF73CFE044611
:1036C000EF480D460068FCF736FE8DE8F000024634
:1036D0000B46ECA0FFF712FBE44CA41FE068FCF7DC
:1036E000FDFD05466061A068FCF7F8FDDA49A061C0
:1036F0000968CD63D9490968C863DFF898B3E64E15
:10370000E64DDFF89C834FF0010A04F120096420A4
:10371000FDF7C4F90221E348FDF7E6FA2061D3483A
:1037200008211A30FFF712FA9BF80000FCF7D1FDD0
:10373000E06121782069084303D100F0AFFB00204D
:10374000A070206900287AD120780128DFD1607824
:10375000012801D100F0DCFA3078012806D00228D7
:1037600004D0A07880B101286AD013E1CE49A160CD
:10377000E160012802D0022803D00BE100F048FAF2
:1037800008E100F085FA05E12878012801D100F070
:103790007FFA2878022801D100F03AFA2878032825
:1037A0005BD1C24F38780028DFD000BF00F0B0FAFC
:1037B00038780028FAD12878012806D002280DD0C0
:1037C00003281AD004282AD0A7E04FF4FA7000F09A
:1037D00085FB4FF47A7000F0FBFB07E04FF4FA70C2
:1037E00000F07CFB4FF47A7000F0B0FBA078401C36
:1037F000A070E078401CE0702FE0AD48984FA060CA
:10380000E06039680020486202E000BF00F080FA02
:103810003868406A00B2B0F5616FF7DB1AE04FF428
:10382000FA7000F05BFB4FF47A7000F08FFBA04859
:103830008B4FA060E06039680020486204E0C9E076
:1038400099E000BF00F064FA3868406A00B2B0F551
:10385000616FF7DB9748A060E060287804285CD1AE
:10386000924F3878002823D000F052FA3878002898
:10387000FAD12878012802D0022809D013E04FF4A9
:10388000FA7000F02BFB4FF47A7000F0A1FB07E018
:103890004FF4FA7000F022FB4FF47A7000F056FB00
:1038A000A078801CA0702878042802D005281AD09F
:1038B00070E04FF4FA7000F011FB4FF47A7000F0F2
:1038C00045FB7B48664FA060E06039680020486295
:1038D00002E000BF00F01CFA3868406A00B2B0F5A0
:1038E000616FF7DB16E04FF4FA6000F02FFBA07871
:1038F0005B4F401CA0707048A060E06039680020F9
:10390000486201E000F004FA3868406A00B2B0F59D
:10391000FA5FF7DB6748A060E0602878052839D1B6
:10392000624F387818B300BF00F0F2F938780028F9
:10393000FAD1287805281AD14FF4FA6000F006FB76
:10394000A078474F401CA0705B48A060E0603968D9
:103950000020486202E000BF00F0DAF93868406AEF
:1039600000B2B0F5FA5FF7DB5248A060E0603220A9
:10397000FDF794F80EE051480078012802D00228A3
:1039800003D007E000F084F901E000F041F9A078ED
:10399000401CA07098F80000012816D1474989F80A
:1039A00006A04FF47A70097889F80510297889F80B
:1039B0000410002189F8031089F80210FDF76EF851
:1039C00000F06CFA2078401C2070284808211A303A
:1039D000FFF7BCF8206901287FF499AE207802280F
:1039E00021D1364A89F806A00027127889F80520E7
:1039F0002A7889F8042089F803A089F8027040F237
:103A0000BC7000F0A3FA2078401C2070E77005E03D
:103A1000164808211A30FFF799F87F1C062FF7DBAC
:103A200020690128D8D120780328D5D100F070F979
:103A30000E4808211A30FFF789F8207958B11F4A3B
:103A400089F806A0127889F805202A7889F80420D8
:103A500089F803A034E035E0DC0000206C01002090
:103A60002401002044020020940000203E00002099
:103A7000140300208C0200201400002010000020FD
:103A80000C000020503A256620493A256620443A29
:103A9000256600000600002008000020000000202D
:103AA0000700002000080140000048430A000020F1
:103AB00000009643000034430000C843010000208A
:103AC00089F802A0307801280BD0022809D0287884
:103AD00002280ED001281CD002280ED001281CD0AC
:103AE0007EE04749A160E160022851D0012863D0FF
:103AF00076E044480078032806D04248007802283F
:103B00001AD001282CD06BE0E078C8BB00F0C0F8D8
:103B10000EE03C480078032806D03A480078012897
:103B20002FD0022841D05BE0E07848BB00F070F86D
:103B30003548A060E06050E0E078A8B3012802D0EA
:103B4000022803D04CE000F0A3F83AE02F4F387879
:103B5000B0B100BF00F0DCF838780028FAD13CE0C2
:103B6000E078A8B10128EED0022839D1274F387863
:103B700030B100BF00F0CCF838780028FAD12CE042
:103B80002EE0E07820B1012819D0022803D027E0E8
:103B900000F03EF824E01D4F387808B300F0B8F884
:103BA00038780028FAD118E006E0E07820B1012842
:103BB00005D0022809D013E000F06AF810E000F008
:103BC00027F81148A060E0600AE0104F387838B15B
:103BD00000F09EF838780028FAD12079401C207136
:103BE00098F8000001287FF492AD4FF4C870FCF7FC
:103BF00055FF00F053F92078401C207087E5000045
:103C00000000484301000020000096430A00002005
:103C100010B5164C2078002827D0154800780128C8
:103C200023D100BF00F074F820780028FAD100F00A
:103C300035F911490F480860104908601049B4204F
:103C40000968C8630F490968C8634FF4FA7000F047
:103C500045F94FF47A7000F079F90B490878401C67
:103C600008700A490878401C087010BD0A0000203E
:103C70000B000020000034434400002040000020DE
:103C8000DC0000206C0100203A0000203B000020F6
:103C900010B5164C2078002827D015480078012848
:103CA00023D100BF00F034F820780028FAD100F0CA
:103CB000F5F811490F480860104908601049B42010
:103CC0000968C8630F490968C8634FF4FA7000F0C7
:103CD00005F94FF4487000F07BF90B490878401C57
:103CE00008700A490878401C087010BD0A000020BE
:103CF0000B0000200000344344000020400000205E
:103D0000DC0000206C0100203A0000203B00002075
:103D10002DE9F05F3C48DFF8F880DFF8F890017893
:103D20003A483E4D3E4E02683B48DFF8F8A03E4C14
:103D30000078914203DA3D4A126891424DDCFCF76B
:103D4000C8FA07463A480068FCF7BAFA3946FEF75F
:103D50009DFC3848016830688346FCF727FAFCF779
:103D6000BDFA074620605846FCF7B8FA286051466D
:103D70005846FCF71BFA83463846FCF7A1FA594629
:103D8000FCF7F6FA06D251463068FCF70FFAFCF75A
:103D9000A5FA206051463068FCF75AFA07462068B9
:103DA000FCF78EFA3946FCF7D9FA06D2514630684C
:103DB000FCF74EFAFCF792FA2060D8F80000296868
:103DC000C163D9F800002268C2631BA0FEF796FF0A
:103DD0001DA02168FEF792FF12E0503814280FD87A
:103DE0001D480068FCF77AFA206004463068FCF74A
:103DF00075FA2860D8F80010C863D9F80000C463C9
:103E0000BDE8F05F00F02AB8060000202C0000207A
:103E1000DC0000206C010020090000204C00002084
:103E200044000020000048425000002034000020E0
:103E300030000020280000204D6F746F724F7574A1
:103E4000707574313A2564004D6F746F724F7574DC
:103E5000707574323A2564004000002010B50D4C96
:103E6000002202212046FCF744FF01221146204691
:103E7000FCF73FFF084C002220212046FCF739FFC9
:103E8000012210212046FCF734FFBDE81040142029
:103E9000FCF704BE000C01400008014010B50D4CB9
:103EA000012202212046FCF724FF01221146204670
:103EB000FCF71FFF084C012220212046FCF719FFC8
:103EC000012210212046FCF714FFBDE81040142009
:103ED000FCF7E4BD000C0140000801402DE9F04171
:103EE000124D0646002428682746446210480068A0
:103EF000FCF70DFA0F490968C8630F490968C863E0
:103F0000FFF7ACFF286801E0416A0CB2B442FBDB6A
:103F100021460AA0FEF7F2FEFFF7C0FF28684762BD
:103F2000BDE8F0416420FCF7B9BD00002401002089
:103F300040000020DC0000206C010020206C6F6E2F
:103F4000676E756D626572313A2564002DE9F04146
:103F5000164D064600242868274644621448006827
:103F6000FCF7D5F913490968C86313480068FCF7E2
:103F7000CEF912490968C86300F06CF806E02868B9
:103F8000406A04B221460EA0FEF7B8FEB442F6DB4A
:103F900021460BA0FEF7B2FEFFF780FF28684762BC
:103FA000BDE8F0416420FCF779BD00002401002049
:103FB00044000020DC000020400000206C010020B4
:103FC000206C6F6E676E756D626572323A256400A3
:103FD0002DE9F041164D0646002428682746446224
:103FE00014480068FCF793F913490968C86313483B
:103FF0000068FCF78CF912490968C86300F04AF8B8
:1040000007E02868406A404204B221460DA0FEF74E
:1040100075FEB442F5DB21460AA0FEF76FFEFFF7FE
:104020003DFF28684762BDE8F0416420FCF736BDDB
:104030002401002044000020DC000020400000207B
:104040006C010020206C6F6E676E756D6265723258
:104050003A25640010B50D4C002202212046FCF7E1
:1040600048FE012211462046FCF743FE084C01227F
:1040700020212046FCF73DFE002210212046FCF7BF
:1040800038FEBDE810401420FCF708BD000C0140CC
:104090000008014010B50D4C012202212046FCF71A
:1040A00028FE002201212046FCF723FE084C0022B6
:1040B00020212046FCF71DFE012210212046FCF79E
:1040C00018FEBDE810401420FCF7E8BC000C0140CD
:1040D000000801400000000000000000010203048D
:1040E0000607080900000000010203040C41000853
:1040F00000000020740000003C2D000880410008F2
:1041000074000020E40600004C2D000803030000AA
:10411000000000000000000000000040000000005F
:104120000000000000004842000000000000000005
:1041300000000000000000005D0000005A000000C8
:104140005700000000010000000000000000C8430C
:104150000000C84301000000000000000000000053
:1041600000000000AABB0000000000CC010000001D
:1041700010000000000000000024F4000000000017
:0400000508000131BD
:00000001FF
