:020000040800F2
:10000000780B002045010008E72B00085D2300085D
:10001000E52B0008150A00081D3400080000000048
:10002000000000000000000000000000A52E0008F5
:10003000170A000800000000B52D0008A72E0008D0
:100040005F0100085F0100085F0100085F01000810
:100050005F0100085F0100085F0100085F01000800
:100060005F010008210A00085F0100085F01000825
:100070005F0100085F0100085F0100085F010008E0
:100080005F0100085F0100085F0100085F010008D0
:100090005F0100085F0100085F0100085F010008C0
:1000A0005F0100080D2F00085F0100085F010008D4
:1000B0005F0100085F0100085F0100085F010008A0
:1000C0005F0100085F0100085F0100085F01000890
:1000D0005F010008F93300080534000811340008F6
:1000E000190A00085F0100085F0100085F010008AD
:1000F0005F0100085F0100085F0100085F01000860
:100100005F0100085F0100085F0100085F0100084F
:100110005F0100085F0100085F0100085F0100083F
:100120005F0100085F0100085F0100085F0100082F
:10013000DFF80CD000F05CFB004800474D3D0008A4
:10014000780B00200648804706480047FEE7FEE798
:10015000FEE7FEE7FEE7FEE7FEE7FEE7FEE7FEE777
:10016000092F000831010008202A04DB203A21FA77
:1001700002F00021704721FA02F3D040C2F12002C0
:100180009140084319467047D2B201E000F8012BB4
:10019000491EFBD270470022F6E710B513460A4607
:1001A00004461946FFF7F0FF204610BDF0B480EA80
:1001B0000102D40F4200B2EB410F02D202460846C0
:1001C00011464A0042D0C30DDDB2C1F3C752AD1A89
:1001D000202D35DAC1F3160141F4000204B1524278
:1001E000C5F1200602FA06F12A411044B3EBD05FB4
:1001F00023D0C4B1012DA0EBC35009DCF0BC4FF0FB
:10020000004202EAC352DBB200F5000000F00AB976
:10021000400000F1807000EBC350A0F1807040EA14
:10022000D170490009E0490841EAC071A0EBC35010
:1002300000F50000400800EBC350F0BC00F0E9B846
:100240006142012202EB4101001BF6E7F0BC70475E
:1002500081F00041AAE780F00040A7E780EA0102B0
:1002600010B502F00043400022D04A001FD0010E1A
:1002700001EB1261C0F35600C2F3560240F40000D5
:1002800042F40002A0FB022000047F39140400D0D5
:10029000401C50EA124001D44000491EC2B20C0674
:1002A00004EBD010401C4008802A02D003E000205C
:1002B00010BD20F00100002900DA0020184310BD15
:1002C000C10F80EAE0700844CA079623002100F0BD
:1002D000A9B896230022114600F0A4B800F000420D
:1002E00020F00040C10DC0F3160040F400007F294B
:1002F00001DA00207047962903DCC1F19601C8405D
:1003000001E096398840002AF4D04042704720F03E
:100310000040C10DC0F3160040F400007F2901DA4F
:1003200000207047962903DCC1F19601C840704750
:1003300096398840704700F0004230F000400AD003
:10034000C10D01F56071C0F3160042EA0151C20807
:10035000400711437047002001467047002801DB29
:10036000C0F10040002901DBC1F10041814270472A
:10037000002801DBC0F10040002901DBC1F1004190
:100380008842704730B50B460146002020220124E8
:1003900009E021FA02F59D4205D303FA02F5491B53
:1003A00004FA02F52844151EA2F10102F1DC30BD69
:1003B0002DE9F05F0546002092469B46884606469A
:1003C000814640241BE02846414647462246FFF727
:1003D000CBFE53465A46C01A914110D311461846D7
:1003E000224600F017FA2D1A67EB01084F46224605
:1003F0000120002100F00EFA17EB00094E41201EEB
:10040000A4F10104DFDC484631462A464346BDE8F4
:10041000F09F0029A8BF7047401C490008BF20F08A
:100420000100704710B4B0FA80FC00FA0CF050EAFA
:10043000010404BF10BC704749B1CCF1200421FA7B
:1004400004F411FA0CF118BF012121430843A3EB76
:100450000C01CB1D4FEA00614FEA102042BF002083
:1004600010BC704700EBC35010440029A4BF10BC5F
:100470007047401C490008BF20F0010010BC7047C5
:100480002DE9FE4F804681EA0300C00F0C46009024
:1004900021F0004123F00045B8EB0200A94105D24C
:1004A0004046214690461C460B46024623F000403B
:1004B000104347D0270DC7F30A00C3F30A51029037
:1004C000401A019040286BDAC3F3130040F4801BFC
:1004D0000098924620B10023D2EB030A63EB0B0B8A
:1004E00001985946C0F14002504600F093F9064683
:1004F0000D4650465946019A00F09BF910EB080052
:100500006141002487EA115284EAE7731A4340D01C
:10051000009A62B3019A012A4FEA075215DC001BC8
:1005200061EB02014FF0004202EA0752CDE90042BE
:10053000001C41F5801132462B4600F09BF903B0B8
:10054000BDE8F08F40462146F9E7001B61EB020150
:10055000001C41F5801300185B412018A2F500171C
:1005600047EB030140EAD570B6196D4111E06D0803
:100570004FEA360645EAC0754FEA0752001B61EBA9
:100580000201001C41F5801149084FEA30000019B2
:10059000514132462B4603B0BDE8F04F00F05BB945
:1005A0000098012240000023D0EB020263EBE073CD
:1005B000009821464FEAE074B8EB000061EB0401BB
:1005C000E9E783F000435BE781F0004158E72DE95C
:1005D000FE4F81EA030404F0004421F0004100943E
:1005E0004FF0000B23F0004350EA01045ED052EAC2
:1005F00003045BD0C3F30A54C1F30A552C44A4F29C
:10060000F3340194A0FB0254C1F3130141F48011AF
:10061000C3F3130343F4801301FB024400FB034EB6
:10062000840A970A44EA815447EA8357A4FB07687F
:1006300002958D0A05FB07854FEA932C04FB0C54A9
:100640002705029D4FEA065847EA1637B5EB08051D
:100650006EEB070C870E920E47EA811742EA83126F
:10066000A7FB0201B6EB0B0164EB00042B0D43EA80
:100670000C335E1844EB1C50DA465146E7FB02018E
:10068000C5F313044FEA0B3343EA14534FEA043221
:10069000019C43EA0603A4F10C040294009CCDE9FA
:1006A00000B400F0E7F803B0BDE8F08F0020014689
:1006B000F9E72DE9F04D81EA030404F0004B21F045
:1006C000004514464FF0000A23F0004150EA0502AD
:1006D00020D054EA01021DD0C5F30A570246C5F3E3
:1006E0001303C1F31300C1F30A5640F4801543F419
:1006F0008013A7EB0608101BD64608F2FD3873EBF3
:10070000050002D308F1010801E092185B41B8F13D
:10071000000F03DA00200146BDE8F08D00204FF401
:100720008011064684460EE0171B73EB050705D3C0
:10073000121B63EB050306434CEA010C49084FEA20
:10074000300092185B4150EA0107EDD152EA0300F4
:1007500012D082EA040083EA0501084305D0101B89
:10076000AB4106D20122002306E000224FF00043F5
:1007700002E06FF0010253101AEB06004CEB085137
:1007800010EB0A0041EB0B01BDE8F04D00F063B83F
:10079000C1F30A52C1F3130140F2FF3341F4801157
:1007A0009A4202DA00200146704740F233439A42EF
:1007B000A2F2334202DC5242FFF7D6BC00F02AB864
:1007C00030B5041E71F1000404DB4FF000444042D8
:1007D00064EB0101141E73F1000405DB1C464FF0AD
:1007E0000043524263EB0403994208BF904230BD7C
:1007F000064C074D06E0E06840F0010394E807006E
:1008000098471034AC42F6D3FFF796FCA494000846
:10081000C4940008202A04DB203A00FA02F10020E8
:1008200070479140C2F1200320FA03F3194390402E
:100830007047202A06DBCB17203A41FA02F043EA40
:10084000E07306E041FA02F3D040C2F12002914089
:1008500008431946704710B5141E73F1000408DAF6
:10086000401C41F1000192185B411A4301D120F074
:10087000010010BD2DE9F04D92469B4611B1B1FA31
:1008800081F202E0B0FA80F220329046FFF7C2FF18
:1008900004460F4640EA0A0041EA0B0153465A4615
:1008A000084313D0114653EA010019D0C8F14002A1
:1008B0005046FFF759FC05460E46504659464246FB
:1008C000FFF7A8FF084305D0012004E02046394681
:1008D000BDE8F08D0020054346EAE0762C4337431F
:1008E0000A986305E40AA0EB08000022FD0A44EA26
:1008F00047540A3002D500200146E9E701051019E6
:100900006941DDE9084500196941BDE8F04DA2E7FC
:10091000F8B53E4C01262146277BCD7A3C4A691C1E
:10092000CBB2002137B1012F08D0022F1AD0032FEC
:1009300056D005E0AA2803D126730FE0BB280AD0C1
:100940002173E1725FF0000022F81010401CC0B269
:100950000A28F9D3F8BD02202073BB2022F8150025
:10096000E372F8BD22F81500E3720F2B01D2CC28F8
:10097000F7D10320207302EB4300667310F80C2DAF
:10098000E27081782171017961718179A171007AB8
:10099000E071E07B00B1A0740C2505231E2100202E
:1009A000009501F0CFFE00951E210523227908460F
:1009B00001F0C8FE0095052362791E213C2001F05C
:1009C000C1FE00950523A2791E215A2001F0BAFE2E
:1009D00000950523A2791E21782001F0B3FEF8BD11
:1009E00002EB450030F8020CCC280AD02173E172EA
:1009F0005FF0000022F81010401CC0B20A28F9D3A2
:100A0000F8BD6173E1722173F8BD00002C00002075
:100A100096000020FEE770474FF4005000F0DEB86B
:100A2000082000F0DBB872B6FEE710B590F8211090
:100A30000022022905D00421816380F820200120B2
:100A400010BD01680B6823F00E030B6001680B6892
:100A500023F001030B6090F84030C46B012101FAD0
:100A600003F3636080F8211080F82020104610BD49
:100A70002DE9F05F90F821100024022903D0042111
:100A80008163012485E001680A6822F00E020A6091
:100A900001680A6822F001020A603F4E3E4FB2151B
:100AA000DFF8F4C0DFF8F090DFF8ECA0DFF8E8B092
:100AB000DFF8E4E00168783F13011502ACF1640C43
:100AC000A9F15009AAF13C0AABF1280BAEF1140EC2
:100AD0004FF48018B14227D9B9420ED0614512D0E7
:100AE00049451DD0514518D0594518D0714501D1FF
:100AF000424615E0294EB14201D1012210E0274EB5
:100B00001436B14201D110220AE0244E2836B142F7
:100B100006D0224A3C32914201D11A4600E02A46D0
:100B20001E49091F0A602BE0B94213D0614517D056
:100B3000494522D051451DD059451DD0714501D19F
:100B400042461AE0B14202D14FF0807215E0134ED6
:100B5000B14201D1012210E0104E1436B14201D150
:100B600010220AE00D4E2836B14206D00B4A3C3224
:100B7000914201D11A4600E02A46074980394A606D
:100B8000012180F82110002180F82010416B01B173
:100B900088472046BDE8F09F8000024008040240DC
:100BA00070B5044600F02CF90546601C02D00448DC
:100BB0000078044400F024F9401BA042FAD370BD31
:100BC00064000020082806D103490878401C0870FA
:100BD000092000F073B9704744000020044910B5A3
:100BE0000A68024202D00860FFF7ECFF10BD000067
:100BF000140401402DE9F84FDFF8C891002409F1F1
:100C0000040A0AF1040B23460F270BF1040ED1E06E
:100C10000125A54006EA0502AA4276D1DFF8A8C15F
:100C20004E68A6EB0C0866452BD00DDC032E34D0A5
:100C300005DC36B3012E19D0022E2FD11BE0112E68
:100C400016D0122E2AD119E0B8F5881F19D006DC6B
:100C5000B8F5803F15D0B8F5801F1FD111E0B8F569
:100C6000001F0ED0B8F5041F18D10AE0CB6815E0BC
:100C7000CB681B1D12E0CB6808330FE0CB680C3348
:100C80000CE08B682BB1012B4FF0080303D04561BA
:100C900004E0042302E0056100E00023FF2A01D8FC
:100CA000064601E000F104064FEA840501D9A5F1EA
:100CB0002005D6F8008007FA05FC28EA0C0803FA9C
:100CC00005F548EA0508C6F800804D68ED0070D5C6
:100CD0003E4DAE6946F00106AE61AD6924F00306F3
:100CE00005F0010500953A4D06EB050CDCF80850BF
:100CF000A607360F07FA06F825EA0805DFF8D480BC
:100D0000404503D14FF0000825E052E0DFF8C880ED
:100D1000404502D14FF001081DE0DFF8C08040459A
:100D200002D14FF0020816E0DFF8B480404502D14E
:100D30004FF003080FE0DFF8AC80404502D14FF0E0
:100D4000040808E0DFF8A080404502D14FF0050814
:100D500001E04FF0060808FA06F848EA0508CCF862
:100D600008804D68D9F80060ED034D4601D5164363
:100D700000E096432E604D68DAF80060AD035546FA
:100D800001D5164300E096432E604D68DBF8006005
:100D9000ED025D4601D5164300E096432E604D6896
:100DA000DEF80060AD02754601D5164300E09643BB
:100DB0002E60641C0A681646E2407FF429AFBDE845
:100DC000F88F0000000401400000111000100240E4
:100DD0000000014000080140000C014000100140EB
:100DE0000014014000180140001C014080680840C8
:100DF00000D0012070470AB1016170470904FBE788
:100E00000148806870470000640000200248816843
:100E1000027811448160704764000020074810B5D3
:100E2000016841F010010160032000F085F8002006
:100E300000F006F800F024F8002010BD0020024069
:100E400070B50D4D04464FF47A712878B1FBF0F07F
:100E50000A490968B1FBF0F000F041FC48B9102CD8
:100E600007D200222146501E00F046F800206C6098
:100E700070BD012070BD00006400002070000020E3
:100E80000C4808B5816941F001018161816901F077
:100E900001010091C16941F08051C161C06900F058
:100EA000805000900448416821F0E06141F00071F9
:100EB000416008BD001002400000014000280DDB29
:100EC00000F01F02012191404009800000F1E02064
:100ED000C0F88011BFF34F8FBFF36F8F70470028AA
:100EE00009DB00F01F02012191404009800000F160
:100EF000E020C0F800117047F0B40E4B1B680C46A0
:100F0000C3F30223C3F10705042D00D90425191DDD
:100F1000072901D2002300E0DB1E012606FA05F1B5
:100F2000491E214099409E40761E16403143F0BC38
:100F300002F086BA0CED00E0064900F007020868EE
:100F40004FF6FF03184040EA0220034A10430860AE
:100F5000704700000CED00E00000FA052DE9F047B5
:100F60000F46050061D0434E306800F00700B842DC
:100F700009D2306820F0070038433060306800F054
:100F80000700B84251D128683B4C810712D5400771
:100F900003D5606840F4E06060602878000703D5FE
:100FA000606840F4605060606068A96820F0F000FC
:100FB000084360602878C00728D06868012810D0EE
:100FC0002168022810D0890700292EDA616821F0F3
:100FD000030101436160FFF713FF804641F2883946
:100FE0000DE021688903EFE78901EDE7FFF708FFCE
:100FF000A0EB0801494502D90320BDE8F0876068ED
:10100000696800F00C00B0EB810FEFD1306800F0A0
:101010000700B8420BD9306820F007003843306031
:10102000306800F00700B84201D00120E5E72878D9
:10103000400705D56068E96820F4E0600843606017
:101040002878000706D56068296920F4605040EAD6
:10105000C100606000F038F86168084AC1F303110C
:10106000515CC8400649086006480068FFF7E8FE82
:101070000020C2E700200240001002408C940008CB
:101080007000002068000020044805490068496895
:10109000044AC1F30221515CC8407047700000202F
:1010A000001002409C940008044805490068496803
:1010B000044AC1F3C221515CC8407047700000204F
:1010C000001002409C94000812A185B00FC98DE861
:1010D0000F0014A0144A006804905168134801F0EE
:1010E0000C03042B10D0082B0ED1C1F38343C9038A
:1010F0001DF803000AD5516804AAC1F34041515CB0
:101100000A4A5043B0FBF1F005B070470849484324
:10111000FAE7000002030405060708090A0B0C0D94
:101120000E0F1010010200000010024000127A00A1
:1011300000093D002DE9F84F040070D02078C04D23
:10114000C00749D06868C0F38100012807D06868EB
:10115000C0F38100022809D16868C00306D5286859
:10116000800339D560680028E7D035E06068B0F5C5
:10117000803F0BD010B1B0F5A02F11D0286820F41B
:1011800080302860286820F4802002E0286840F43D
:1011900080302860606890B1FFF732FE06460AE0B2
:1011A000286840F480202860F0E700BFFFF728FEA1
:1011B000801B642873D828688003F7D50CE0FFF7FC
:1011C0001FFE064605E000BFFFF71AFE801B6428DD
:1011D000F0D828688003F7D420789A4E80074FF023
:1011E00001094FF0000839D5686810F00C0F07D0DE
:1011F0006868C0F38100022809D16868C00306D47A
:101200002868800714D52069012808D110E02069DA
:10121000B0B1C6F80090FFF7F3FD074605E00AE11C
:10122000FFF7EEFDC01B0228C4D828688007F7D559
:101230002868616920F0F80040EAC10028600DE0EC
:10124000C6F80080FFF7DCFD074604E0FFF7D8FD95
:10125000C01B022823D828688007F7D4207800070D
:101260002CD57948A169D9B1C0F80090FFF7C8FD25
:10127000074604E0FFF7C4FDC01B02280FD8686AC8
:101280008007F7D571484FF4FA510068B0FBF1F0D0
:10129000009000BF0098411E0091FAD20EE080E05D
:1012A000C0F80080FFF7ACFD074604E0FFF7A8FD9B
:1012B000C01B022875D8686A8007F7D420784007D9
:1012C00060D5E8690027C00008D4E86940F0805084
:1012D000E861E869012700F0805000905C480168EF
:1012E000C90513D40168834641F480710160FFF79A
:1012F00087FD824606E000BFFFF782FDA0EB0A00F3
:1013000064284ED8DBF80000C005F5D5E068012858
:101310000AD008B1052813D0286A20F001002862FD
:10132000286A20F0040002E0286A40F001002862E8
:10133000E06841F2883B98B1FFF762FD82460BE01E
:10134000286A40F004002862EEE700BFFFF758FD6E
:10135000A0EB0A0159455AD8286A8007F6D50CE057
:10136000FFF74EFD824605E0FFF74AFDA0EB0A01BC
:1013700059454CD8286A8007F6D41FB1E86920F097
:101380008050E861E06988B36968C1F3810102298E
:1013900044D00228C6F8608004D0FFF731FD04462F
:1013A00038E034E0FFF72CFD074604E0FFF728FDA6
:1013B000C01B02282BD828688001F7D4206AB0F51A
:1013C000803F05D16868A16820F400300843686058
:1013D000D4E908010843696821F47411084368607E
:1013E000C6F86090FFF70CFD044606E025E000BF5C
:1013F000FFF706FD001B022809D828688001F7D5F1
:101400001BE000BFFFF7FCFC001B022802D90320F1
:10141000BDE8F88F28688001F4D40EE00128F7D0E9
:101420006868226A00F48031914204D1616A00F454
:101430007010884201D00120EAE70020E8E70000B0
:10144000001002400000424280044242700000202E
:101450000070004070B5040009D0606A002540B1FA
:1014600025616561A56294F8510040B10CE001204E
:1014700070BD6068B0F5827FF4D0E561F2E784F872
:101480005050204600F040F8022084F851002068B7
:10149000016821F040010160A088218900F4827078
:1014A00001F404410843A18901F400610843217C4F
:1014B00001F002010843217D01F001010843218B65
:1014C00001F400710843217F01F03801084394F8CA
:1014D000201001F080010843218D01F400510843E0
:1014E00021680860A069042101EA10402168486071
:1014F0002068C16921F40061C1616565012084F83B
:101500005100002070BD000000B585B000210091A1
:1015100001910291039100681349884221D1134837
:10152000816941F480518161816901F480510491A4
:10153000816941F0080181618069694600F0080015
:101540000490282000900220019003200390084876
:10155000FFF750FB0748416841F0E06141F00101AD
:10156000416005B000BD00000030014000100240A5
:10157000000C0140000001402DE9F84F044690F8AE
:10158000500000271D461646894601280DD04FF011
:10159000010B84F850B0FFF733FC804694F85100FB
:1015A000BA46012804D0022793E00220BDE8F88F54
:1015B000B9F1000F73D0002E71D0032084F85100D0
:1015C000C4F854A0C4F83090A686E686C4F838A0C3
:1015D000A4F83CA0A4F83EA0C4F844A0C4F840A0DD
:1015E000A068B0F5004F09D12068016821F04001E2
:1015F00001602068016841F4804101602068016851
:10160000490603D4016841F040010160E068B0F58B
:10161000006F606803D030B3012E24D041E008B1E0
:10162000012E1CD1206B21680088C86006E020686C
:101630008168890709D5216B0988C160206B801CEE
:101640002063E08E401EE08609E0FFF7D9FBA0EBA7
:101650000800A84202D3681C01D031E07DB3E08EBF
:101660000028E4D120E0206B21680078087306E0B0
:1016700020688168890709D5216B09780173206B7F
:10168000401C2063E08E401EE0860AE0FFF7B8FBB6
:10169000A0EB0800A84203D3681C02D010E017E0BA
:1016A0006DB1E08E0028E3D142462946204601F084
:1016B0008DFB08B120206065A06818B106E0FFE747
:1016C000032706E02068C16880680090606D00B163
:1016D000012784F851B084F850A0384666E710B569
:1016E000401EB0F1807F01D3012010BD4FF0E024F7
:1016F00060610F21601701F0A3FE0020A0610720A8
:101700002061002010BD70477047000070B590F850
:101710003C20012A2CD0012480F83C40022280F891
:101720003D2003685A689D6822F070060A683243BB
:101730005A60104B02689A420ED00F4B9A420BD05F
:10174000B2F1804F08D00D4B9A4205D00C4B9A4213
:1017500002D00C4B9A4204D1496825F0800319430A
:10176000916080F83D40002180F83C10084670BD33
:10177000022070BD002C01400034014000040040F4
:1017800000080040000C004010B5040003D094F89D
:101790003D0010B107E0012010BD002084F83C009E
:1017A000204600F01FF8022084F83D00211D20682B
:1017B00001F0B2FB012084F8460084F83E0084F872
:1017C0003F0084F8400084F8410084F8420084F827
:1017D000430084F8440084F8450084F83D0000206C
:1017E00010BD000008B500680B49884212D10B48B3
:1017F000816941F4006181618069002200F4006028
:10180000009004211920FFF777FBBDE8084019205C
:10181000FFF765BB08BD0000002C0140001002402E
:1018200070B5044690F83C00012817D0012584F8D3
:101830003C50022084F83D002068826822F0770244
:1018400022F47F4282600868502830D00DDC2028C6
:101850004DD005DC98B310283BD148E0022070BD84
:10186000302844D0402834D139E0602828D070286E
:1018700006D0B0F5805F2CD0B0F5005F29D10AE02A
:10188000CB68D1E90121206801F099FB20688168CB
:1018900041F0770109E0CB68D1E90121206801F02E
:1018A0008EFB2068816841F48041816011E0CA6844
:1018B0004968206801F058FC5021206807E016E0D4
:1018C000CA684968206801F060FC6021206801F066
:1018D00080FB84F83D50002084F83C0070BDCA684D
:1018E0004968206801F040FC40212068EFE7226849
:1018F00001461046EBE72DE9F0410D46040003D008
:1019000094F83D0018B108E00120BDE8F081002006
:1019100084F83C00204600F041F8022084F83D00A5
:101920002068816844F2070291438160211D20688C
:1019300001F0F2FA226890689169166A2B68AF6923
:10194000034340F20330814341EA0721A868EF696D
:1019500008434FF6FC418843E96840EA0720014309
:1019600028692F6A000140EA0730084369686D69F9
:1019700026F0220646EA0515294393602268906105
:1019800054F8460B0162012004F81F09E075207627
:10199000E0762077A0750020B7E7000000B585B09D
:1019A00000210091019102910391194B026819499C
:1019B00019489A4211D1CA6942F00202CA61CA6941
:1019C00002F0020204928A6942F004028A61896983
:1019D00001F004010491C02113E0104B9A4214D18C
:1019E000CA6942F00802CA61CA6902F00802049298
:1019F0008A6942F004028A61896901F00401049154
:101A0000032100916946FFF7F5F805B000BD00001D
:101A1000000400400010024000080140000C00409B
:101A200070B590F83E60044690F83F5090F8423010
:101A300090F84320022021B104290ED0012E1BD1A1
:101A400014E0012E18D1012B16D184F83E0084F841
:101A5000420001220021206820E0012D0CD1012A42
:101A60000AD184F83F0084F8430014E0012D03D12B
:101A7000012B01D1012A01D0012070BD84F83E0064
:101A800084F83F0084F8420084F8430001220021DA
:101A9000206801F087FA01220421206801F082FA0F
:101AA0002068016841F001010160002070BD7047AD
:101AB00070B50446006801694FF00005C943890705
:101AC00015D4C168C943890711D4E91E01610120F9
:101AD0002077206880698007204602D0FFF7E7FF63
:101AE00004E000F0BFF8204600F062F92577206896
:101AF0000169C943490717D4C168C943490713D4C9
:101B00006FF004010161022020772068806910F4E1
:101B1000407F204602D0FFF7CAFF04E000F0A2F8A1
:101B2000204600F045F9257720680169C943090777
:101B300016D4C168C943090712D46FF008010161C6
:101B4000042020772068C0698007204602D0FFF774
:101B5000AEFF04E000F086F8204600F029F9257772
:101B600020680169C943C90617D4C168C943C906B9
:101B700013D46FF010010161082020772068C0693C
:101B800010F4407F204602D0FFF791FF04E000F000
:101B900069F8204600F00CF9257720680169C943EF
:101BA000C90708D1C168C943C90704D1891E0161A9
:101BB000204600F059F920680169C943090609D493
:101BC000C168C943090605D46FF080010161204650
:101BD000FFF799FD20680169C943490609D4C16826
:101BE000C943490605D46FF040010161204600F069
:101BF0003CF920680169C94389060BD4C168C9430F
:101C0000890607D46FF0200101612046BDE87040CD
:101C1000FFF77ABD70BD000000B585B000210091CE
:101C200001910291039100680B49884212D10B483F
:101C3000816941F0080181618069694600F008000E
:101C400004904FF4407000900220019003900448EB
:101C5000FEF7D0FF05B000BD0008004000100240B4
:101C6000000C0140704770B5044690F83C000D46EA
:101C700001280AD0012084F83C0042B1042A18D07F
:101C8000082A2AD00C2A4DD139E0022070BD2068E4
:101C900001F0A8F92068816941F00801816120689C
:101CA000816921F004018161206881692A691143F9
:101CB00011E0206801F0C6F92068816941F40061F3
:101CC00081612068816921F4806181612068816976
:101CD0002A6941EA0221816124E0206801F0E8F9E3
:101CE0002068C16941F00801C1612068C16921F023
:101CF0000401C1612068C1692A69114311E02068AB
:101D000001F00AFA2068C16941F40061C1612068EC
:101D1000C16921F48061C1612068C1692A6941EA11
:101D20000221C161002084F83C0070BD10B50400A0
:101D300003D094F83D0010B107E0012010BD002051
:101D400084F83C00204600F01FF8022084F83D0093
:101D5000211D206801F0E0F8012084F8460084F895
:101D60003E0084F83F0084F8400084F8410084F885
:101D7000420084F8430084F8440084F8450084F865
:101D80003D00002010BD000008B5006806498842EB
:101D900008D10648C16941F00401C161C06900F081
:101DA0000400009008BD0000000800400010024040
:101DB0007047000010B50446022249B104290ED034
:101DC000082913D094F84100012816D0012010BD35
:101DD00094F83E000128F9D184F83E200FE094F8F1
:101DE0003F000128F2D184F83F2008E094F8400039
:101DF0000128EBD184F8402001E084F84120012241
:101E0000206801F0CFF813492068134A884201D0B6
:101E1000904203D1436C43F40043436420688842FA
:101E20000DD090420BD0B0F1804F08D00B498842C2
:101E300005D00B49884202D00A49884204D1816802
:101E400001F00701062903D0016841F0010101609A
:101E5000002010BD002C014000340140000400406F
:101E600000080040000C0040704770477047704702
:101E7000F8B5026804461068D168536910F00F0F76
:101E80004FF0000554D003F0010601F4907737437A
:101E90005FD0C20705D0CA0503D5226C42F001020B
:101EA0002264420705D5DA0703D0226C42F0020211
:101EB0002264820705D5DA0703D0226C42F00402BF
:101EC0002264020707D501F02002324303D0226CBE
:101ED00042F008022264226C002A35D0800604D524
:101EE000880602D5204601F082F920684069216CFD
:101EF000C0F3801001F008010143204625D001F015
:101F00005EF92068416949061BD5416921F040010D
:101F10004161A06BA8B158494163A06BFEF7A8FDD1
:101F2000002811D0A06B416B01B0BDE8F04008471C
:101F300083060ED58B060CD52046BDE8F84001F08F
:101F400056B92046FFF793FFF8BDFFF790FF2564D1
:101F5000F8BD266B2023012E52D1C60650D5CE06E1
:101F60004ED5106850680090506940062AD5A16B84
:101F7000086840680004000CEAD0A68D8642E7D9C4
:101F8000E0858869202818D0D06820F48070D0605F
:101F90002068416921F0010141612068416921F017
:101FA0004001416184F83E3025632068C16821F01A
:101FB0001001C160A06BFEF738FDA08DE18D401AC5
:101FC00081B219E0A08DE18D401A81B2E08D002828
:101FD000BED00029BCD0D06820F49070D0602068BA
:101FE000426922F00102426184F83E302563206894
:101FF000C26822F01002C2602046FFF737FFF8BD2A
:1020000005062BD50D0629D594F83D002128F6D1DB
:10201000A068B0F5805F01D12069B0B1206A411C91
:102020002162216800784860E08C401E0004000CAA
:10203000E084E4D12068C16821F08001C16020689B
:10204000C16841F04001C160F8BD206A0088C0F35A
:1020500008005060206A801C2062E5E74006F3D546
:102060004806F1D5D168204621F04001D16084F8BE
:102070003D3000F072F9F8BDAF31000870B50400D2
:1020800004D094F83D00002510B106E0012070BD99
:1020900084F83C50204600F023F8242084F83D00CA
:1020A0002068C16821F40051C160204601F0FAF8AF
:1020B0002068016921F4904101612068416921F0A3
:1020C0002A0141612068C16841F40051C160256462
:1020D000202084F83D0084F83E00002070BD000000
:1020E000F0B585B000240094019402940394036831
:1020F000464F022046490322464D4602BB4225D1A7
:102100008B6943F480438B618B6903F480430493B0
:102110008B6943F004038B618969039201F0040128
:1021200004910102CDE9001069462846FEF762FDE0
:10213000CDE90064694628460294FEF75BFD002263
:1021400003212520FEF7D8FE252028E0324FBB4290
:1021500029D1CB6943F40033CB61CB6903F400335D
:1021600004938B6943F004038B618969039201F046
:10217000040104910421CDE9001069462846FEF7C8
:1021800039FD0820CDE90004694628460294FEF78F
:1021900031FD002201212620FEF7AEFE2620FEF7AB
:1021A0009EFE05B0F0BD1D4DAB42FAD1CB6943F4A4
:1021B0008023CB61CB6903F4802304938B6943F0C4
:1021C00010038B618969164D01F01001CDE90321DF
:1021D000CDE9006069462846FEF70CFDE814CDE91C
:1021E0000004694628460294FEF704FD0D48416844
:1021F00021F0300141F0E06141F010014160002226
:1022000002212720FEF778FE2720C8E7003801408A
:102210000010024000080140004400400048004017
:10222000001001400000014090F83E30202B0ED1FC
:1022300059B152B190F83C30012B08D0012380F8FD
:102240003C300023036301F089B80120704702206D
:102250007047000070B5044600680E490E4D884274
:1022600002D1A879FEF754FB0C492068884202D1BC
:10227000687900F0B9FC08490122891D0848FFF778
:10228000D3FFBDE8704004490122491D0548FFF70E
:10229000CBBF00000048004044000020003801404F
:1022A00034070020AC0600202DE9F843044690F8DE
:1022B0003D001F4616460D4620284CD1C5B1BEB183
:1022C00094F83C00012846D0012084F83C004FF0EF
:1022D0000008C4F84080212084F83D00FEF790FDFE
:1022E000A6848146E684A068B0F5805F03D004E050
:1022F0000120BDE8F883206928B12E465FF0000573
:1023000084F83C800EE00026FAE78021204601F0A8
:1023100040F8A0B9AEB116F8010B21684860E08C16
:10232000401EE084E08C4B464FF0000200970028EE
:10233000EBD14FF04001204601F02BF830B10320E3
:10234000D7E735F8020BC0F30800E6E7202084F851
:102350003D000020CDE70220CBE77047FEE72DE9E6
:10236000F04107461C4615460E462A2000F020FA8A
:102370002837B8B200F038FA2835A8B200F034FA9D
:102380002B2000F015FA3536B0B200F02DFA3534B6
:10239000A0B200F029FABDE8F0412C2000F008BA04
:1023A00008B5002100908723F022084600F002F8CB
:1023B00008BD00002DE9F047141A5F1A641C7F1C49
:1023C0007C43002564004FF49068089E444502D980
:1023D000A4F590654446FFF7C2FF370ADFF84C903A
:1023E000DFF84CA0F6B20020494606E001F8107074
:1023F00001EB4002401C567080B2B0EB540FF5D395
:10240000012210215046FEF7F6FCA1B2074800F069
:10241000F9F8002D07D0454502D9A5F59065E2E70A
:102420002C460025DFE7BDE8F0870000B40000205F
:10243000000C014010B56E4C012280212046FEF7B1
:10244000DAFC7820FEF7ACFB002240212046FEF7A4
:10245000D2FC7820FEF7A4FB012240212046FEF7A3
:10246000CAFC7820FEF79CFB112000F0A1F978202F
:10247000FEF796FB362000F09BF9702000F0A6F9DD
:102480003A2000F095F9052000F0A0F9B22000F004
:102490008FF90C2000F09AF90C2000F097F9002039
:1024A00000F094F9332000F091F9332000F08EF918
:1024B000B72000F07DF9352000F088F9BB2000F04E
:1024C00077F9192000F082F9C02000F071F92C2072
:1024D00000F07CF9C22000F06BF9012000F076F9E1
:1024E000C32000F065F9122000F070F9C42000F05C
:1024F0005FF9202000F06AF9C62000F059F90F209A
:1025000000F064F9D02000F053F9A42000F05EF947
:10251000A12000F05BF9E02000F04AF9D02000F0A3
:1025200055F9042000F052F90D2000F04FF9112068
:1025300000F04CF9132000F049F92B2000F046F987
:102540003F2000F043F9542000F040F94C2000F007
:102550003DF9182000F03AF90D2000F037F90B2072
:1025600000F034F91F2000F031F9232000F02EF99B
:10257000E12000F01DF9D02000F028F9042000F03F
:1025800025F90C2000F022F9112000F01FF913208A
:1025900000F01CF92C2000F019F93F2000F016F98A
:1025A000442000F013F9512000F010F92F2000F022
:1025B0000DF91F2000F00AF91F2000F007F9202074
:1025C00000F004F9232000F001F9212000F0F0F8D8
:1025D000292000F0EDF800218623EF220846FFF7BE
:1025E000BEFE20460022BDE810408021FEF703BC5D
:1025F000000C01400246012000E05043491EC9B2D0
:10260000FBD2704700F0D8BB2DE9F05F203AD7B27B
:102610001C46F022A2EB540282425AD3C4F1870234
:102620008A4256DB0A19521E93B200EB5402521E24
:1026300092B2FFF794FE3F4E102C1AD0202C18D0E7
:102640000C2C48D0182C44D13B4907EB47004FF0E5
:10265000300A002401EB00194FEA060819F804605B
:10266000E00756D004270025300654D5B8F80000FE
:1026700053E0600700D0012000EBD400610848431C
:1026800000F0FF082D48002500EB071A00F5BE50AA
:1026900000EBC71BB1461AE0102C09D0202C18D132
:1026A0001BF805600027300605D5B9F8000004E0E6
:1026B0001AF80560F6E7B9F8020000F095F8700620
:1026C0007F1C060EFFB2082FEDD36D1CEDB2454501
:1026D000E2D3BDE8F09F1A4807EB47014FF00C0921
:1026E000002400EB810800BF18F8047000253806AC
:1026F00001D5308800E0708800F076F878066D1C0F
:10270000070EEDB2062DF2D3641CE4B24C45EBD3B8
:10271000DFE70827A7E7B8F8020000F065F87006C1
:102720006D1C060EEDB2BD429ED3641CE4B254454E
:1027300094D3CEE7400000203C5300084C4D0008E5
:10274000D84800082DE9F05F0026DDF828901D46E6
:1027500092468B46804634464FEA590723E0281BB1
:10276000401EC1B20A20FFF745FFBAFBF0F00A2174
:10277000B0FBF1F201FB120026B9691E8C4201DAAE
:1027800038B101263030C2B207FB048080B24B461C
:1027900004E007FB048080B24B4620225946FFF735
:1027A00033FF641CE4B2AC42D9D3BDE8F09F000013
:1027B00001B5002210210448FEF71DFB01216846E7
:1027C000FFF720FF08BD0000000C014001B5012209
:1027D00010210448FEF70FFB01216846FFF712FFA6
:1027E00008BD0000000C014008B500210091010A5D
:1027F0008DF800108DF80100012210210348FEF72A
:10280000FAFA02216846FFF7FDFE08BD000C014000
:102810002DE9F04786B000244048009401940294CA
:102820000394816941F010018161816901F0100117
:102830000491816941F020018161816901F02001E9
:102840000491816941F004018161816901F0040111
:102850000491816941F0080181618069DFF8C080DD
:1028600000F0080048F21005049000222946404676
:10287000FEF7C1FADFF8ACA0002241F6D0015046C5
:10288000FEF7B9FADFF8A090AF11002239464846AA
:10289000FEF7B1FA42F2080000902448CDE90104A5
:1028A00069464846FEF7A6F90095022601250396DB
:1028B000CDE9015469464046FEF79CF94FF4C050FB
:1028C000CDE90005CDE9024669465046FEF792F98A
:1028D00000970396CDE9015469464846FEF78AF908
:1028E000D020CDE900050320CDE9025069465046CD
:1028F000FEF780F9002205210920FEF7FDFA0920E4
:10290000FEF7EDFA002206212820FEF7F5FA28202E
:10291000FEF7E5FA06B0BDE8F087000000100240BF
:1029200000080140000C014000100140000011109F
:10293000114810B50F4901604FF4827141604FF4A6
:102940000041816000210222C0E90312012242619C
:10295000520282610822C0E90721416281620A2194
:10296000C162FEF777FD002803D0BDE81040FEF7F6
:102970005AB810BD003001403405002010B586B0B3
:102980000024184800940194029403940494144978
:102990000594016041F61F41C0E901146321C0E9BB
:1029A00003148021C0E90541FEF7EEFE08B1FEF7F1
:1029B0003AF84FF48050009069460A48FEF730FF1D
:1029C00008B1FEF730F8049404A906480594FEF710
:1029D0009DFE002801D0FEF726F806B010BD0000CD
:1029E000002C01408C05002010B58CB024216846D5
:1029F000FDF7D1FB00241548099413490A94C0E956
:102A000000144FF6FF71C0E90241046184610120A6
:102A1000CDE90004CDE902040494CDE90540079412
:102A200069460A480894FEF766FF08B1FDF7FBFF08
:102A3000099409A905480A94FEF768FE002801D008
:102A4000FDF7F1FF0CB010BD00040040D4050020DC
:102A500010B58AB0002407941C2168460894FDF73D
:102A60009AFB1B48194901600221C0E9011440F298
:102A7000E731C0E9031480218161FFF757F908B1FC
:102A8000FDF7D1FF079407A911480894FEF73EFE11
:102A900008B1FDF7C8FF6020CDE9000402940822C8
:102AA00069460B480494FFF7DEF808B1FDF7BBFF59
:102AB0000C2269460648FFF7D6F808B1FDF7B3FFC8
:102AC0000348FFF7A9F80AB010BD00000008004055
:102AD0001C06002010B58CB024216846FDF75BFB76
:102AE00000241548099413490A94C0E900144FF6CC
:102AF000FF71C0E90241046184610120CDE9000455
:102B0000CDE902040494CDE90540079469460A48DA
:102B10000894FEF7F0FE08B1FDF785FF099409A9B6
:102B200005480A94FEF7F2FD002801D0FDF77BFF6F
:102B30000CB010BD000C0040640600200C4810B51D
:102B40000A4901604FF4E1314160002181600C22AB
:102B5000C160C0E904128161C161FFF78FFA0028EA
:102B600003D0BDE81040FDF75EBF10BD0038014046
:102B7000AC0600200C4810B50A4901604FF4E13161
:102B80004160002181600C22C160C0E904128161B2
:102B9000C161FFF773FA002803D0BDE81040FDF7CC
:102BA00042BF10BD00440040F00600200C4810B5A4
:102BB0000A4901604FF4E1314160002181600C223B
:102BC000C160C0E904128161C161FFF757FA0028B2
:102BD00003D0BDE81040FDF726BF10BD00480040FF
:102BE00034070020FEE7FEE7F8B54C4C01262146ED
:102BF000677A0D7A4A4A691CCBB2002137B1012F9E
:102C000008D0022F1AD0032F73D005E02C2803D14F
:102C100066720FE012280AD0617221725FF0000024
:102C200022F81010401CC0B20A28F9D3F8BD0220C7
:102C30006072122022F815002372F8BD22F81500E8
:102C400023720F2B01D25B28F7D10320607202EBB5
:102C50004300A67210F8122DA273817811F0FF01C3
:102C6000E1730379237083792374037A6374837A1D
:102C70006370037BE374807BA07000D0A1740C258B
:102C800005233C2100200095FFF75CFD00950523FE
:102C9000E27B3C211E20FFF755FD00953C210523DA
:102CA00022780846FFF74EFD00950523227C3C2143
:102CB0005A20FFF747FD00950523627C3C217820D0
:102CC000FFF740FD0095052362783C219620FFF731
:102CD00039FD00950523E27C3C21B420FFF732FD4D
:102CE00000950523A2783C21D220FFF72BFDF8BDEB
:102CF000FFE702EB450030F8020C5B2809D0617257
:102D00002172002022F81010401CC0B20A28F9D30A
:102D1000EDE7A17221726172E9E700002C0000204A
:102D2000780000202DE9F0411E4C26696661FDF710
:102D30008FFA054631462061FDF78AFAA168FDF752
:102D40008DFA064628462168FDF788FA0746284688
:102D50006168FDF783FAA169FDF728FA0546A061CD
:102D600039463046FDF722FA2946FDF71FFAE061A1
:102D7000E168FDF7FDFAE0680AD380F00040E16900
:102D8000FDF7F6FA01D3E06903E0E06880F0004067
:102D9000E061FDF7D0FABDE8F04102460B4602A023
:102DA00000F03EBB000000206F75747075743A250A
:102DB000660D0A00704700000A4601464FF47A7318
:102DC0000148FEF7D9BB00003405002038B50B469A
:102DD000009204460022802100F008F8002804D068
:102DE000606D40F020006065032038BD2DE9F84398
:102DF0001E46914688460446089DFEF701F8401B92
:102E0000351AFDF7FDFF074625480068C0F3CB30B3
:102E1000684338E0701C37D0FDF7F2FFC01BA842B2
:102E200003D215B1009860B32CE02068416821F00E
:102E3000E00141606068B0F5827F0BD1A068B0F519
:102E4000004F02D0B0F5806F04D12068016821F0F6
:102E500040010160A06AB0F5005F09D120680168F7
:102E600021F4005101602068016841F400510160C3
:102E7000012084F85100002084F850000320BDE8B0
:102E8000F8830025401E00902068816838EA010020
:102E900004D000214945BDD10020F0E70121F9E728
:102EA000700000207047FDF7B1BF30B58FB028210A
:102EB0006846FDF770F914210AA8FDF76CF90121A5
:102EC0000804CDE900100024029402250491CDE904
:102ED00007504FF4E01009906846FEF72BF908B14F
:102EE00072B6FEE70F20CDE90A054FF48060CDE908
:102EF0000C4002210AA80E94FEF730F8002801D0F9
:102F000072B6FEE70FB030BD704700000148FEF713
:102F1000CFBD00008C050020F0B502681C4B1D4D94
:102F20001D4E1E4F1E4C4FF0804C984209D0A042BF
:102F300007D0604505D0A84203D0B04201D0B842C6
:102F400004D122F0700E4A6842EA0E02984209D07B
:102F5000A04207D0604505D0A84203D0B04201D0BE
:102F6000B84203D122F44075CA682A434D6922F061
:102F700080022A4302608A68C2620A6882629842BA
:102F800001D0A04201D10969016301214161F0BD75
:102F9000002C01400004004000080040000C0040EC
:102FA0000034014010B501F01F030121046A99406B
:102FB0008C430462016A9A401143016210BD10B54E
:102FC000846842EA032224F47F440A432243826055
:102FD00010BD826822F070020A4342F0070181604E
:102FE00070470000F0B5026A22F001020262036A33
:102FF00042688469124E24F073050C682C4323F058
:1030000002058B682B430D4DA84201D0B04205D17B
:1030100023F00807CB683B4323F00403A84201D008
:10302000B04205D14D6922F4407215438A692A43A2
:1030300042608461496841630362F0BD002C014035
:1030400000340140F0B5026A22F010020262026A06
:10305000436884690D6824F4E64444EA05248D68D5
:1030600022F0200242EA05120F4D104EA84201D074
:10307000B04206D1CF6822F0800242EA071222F065
:103080004002A84201D0B04207D14D6923F4406309
:1030900043EA85038D6943EA850343608461496897
:1030A00081630262F0BD0000002C01400034014049
:1030B000F0B5026A22F480720262026A4368C4694F
:1030C00022F4007224F073050C68124E2C438D68B4
:1030D00042EA05220E4DA84201D0B04206D1CF6887
:1030E00022F4006242EA072222F48062A84201D060
:1030F000B04207D14D6923F4405343EA05138D696B
:1031000043EA05134360C4614968C1630262F0BDCC
:10311000002C01400034014030B5026A22F4805294
:103120000262046A4268C3690D6823F4E64343EA15
:1031300005238D6824F4005444EA0534084DA84260
:1031400002D0084DA84204D14D6922F4804242EADF
:1031500085124260C36149680164046230BD0000A9
:10316000002C01400034014010B5036A046A24F0C9
:1031700001040462846924F0F00444EA021423F098
:103180000A020A438461026210BD10B5036A23F08B
:10319000100303628369046A23F4704343EA023232
:1031A00024F0A00343EA01118261016210BD10B551
:1031B000406A0021C185C184FEF759FE10BD016837
:1031C000CA6822F49072CA6001684A6922F001025A
:1031D0004A61016B012904D10168CA6822F010021A
:1031E000CA60202180F83E1000210163704708B5B5
:1031F00090F83E10222901D0022008BD82684FF4C9
:1032000080539A4201D1016921B1816A9A421BD04F
:103210004AB10AE00268816A5268C2F308020A8071
:10322000816A891C08E0026972B10268526802F082
:103230007F020A70816A491C8162C18D491E09049E
:10324000090CC18503D019E002685268F1E70168F2
:10325000CA6822F02002CA600168CA6822F480723B
:10326000CA6001684A6922F001024A61202180F89F
:103270003E10016B012903D0FEF7ECFF002008BDD2
:10328000002101630168CA6822F01002CA60016867
:103290000A68D20602D50A6849680091818DFEF756
:1032A000E5FDEBE770B5044600680169E26821F4CA
:1032B0004051114301612169A068084361690843D5
:1032C0002168CA6841F20C639A430243CA602068CD
:1032D0004169A26921F44071114341611E4920688E
:1032E000884202D1FDF7E0FE01E0FDF7CDFE00EBE4
:1032F000C00101EB0012606864218000B2FBF0F3B2
:10330000B3FBF1F36FF018067343B2FBF0F5B2FBB9
:10331000F0F605EB8305322303EB0515B5FBF1F55C
:10332000B6FBF1F605F0F00505EB0615B2FBF0F67D
:10333000B2FBF0F0B0FBF1F06FF01802504306EB77
:10334000800003EB0010B0FBF1F0216800F00F00EB
:103350002844886070BD0000003801408162828589
:10336000C28500210164222280F83E2080F83C10B2
:103370000168CA6842F48072CA6001684A6942F012
:1033800001024A610068C16841F02001C16000206B
:1033900070472DE9F041984617460E460446069DB3
:1033A0001DE0681C1BD02DB1FDF72AFDA0EB080025
:1033B000A84214D92068C16821F4D071C160206886
:1033C000416921F001014161202084F83D0084F829
:1033D0003E00002084F83C000320BDE8F081206816
:1033E000006836EA000004D00020B842D9D000209E
:1033F000F3E70120F9E700000148FEF739BD0000BE
:10340000AC0600200148FEF733BD0000F0060020A6
:103410000148FEF72DBD000034070020FEE7000044
:103420000FB4054B10B503A9044A029800F0EAF85E
:1034300010BC5DF814FB0000353D0008740000204E
:103440000907090E002804DB00F1E02080F80014D1
:10345000704700F00F0000F1E02080F8141D704765
:1034600002E008C8121F08C1002AFAD1704770474D
:10347000002001E001C1121F002AFBD170470000AB
:103480002DE9FF5F82B00021DDE90430020DDDF897
:1034900040B0034318D044F61050A2F2FF3242432A
:1034A0001514119801281FD0A5EB0B00401C5FEAF2
:1034B000000A4FF000064E4FDFF83891B0465046F4
:1034C00015D5CAF1000413E0119801244AA301287C
:1034D00001D16FEA0B010298119AC0E90031C0E9ED
:1034E000024206B0BDE8F09FCBF10000DFE70446E2
:1034F0000021404A491842EB0450CDE9001012E087
:10350000E00707D032463B4640464946FDF75FF8A4
:103510008046894632463B4610461946FDF757F825
:1035200006460F466410002CEAD1DDE90401DDE90E
:103530000023BAF1000F06DAFDF749F842464B4680
:10354000FDF745F805E0FDF7B4F842464B46FDF7B8
:10355000B0F804460E460022284BFDF731F903D897
:103560004FF0FF30014607E00022254B2046314650
:10357000FCF786FFFDF70CF9102409E0002C0ADBAC
:103580000A220023FCF714FF039B30321A55641EF5
:1035900050EA0102F2D1641C039AC4F111031444ED
:1035A000119A012A03D0012208430DD10AE00843F1
:1035B00004D000204FF0110B119072E7A3EB0B0524
:1035C0006D1E0DE05B4504DD4FF0000205F10105C5
:1035D00004E003DA4FF00002A5F10105002AECD067
:1035E00002981199C0E90231C0E9004579E700006D
:1035F000000014400000F03F300000000000F043E5
:103600000000E03F2DE9FF4F95B09B4689460646F6
:1036100000250FE2252877D100242746F84A01210A
:10362000059400E0044316F8013F203B01FA03F043
:103630001042F7D130782A2811D06FF02F0330785C
:10364000A0F13002092A16D8059A44F0020402EBD0
:10365000820203EB42021044761C0590EFE759F812
:10366000042B0592002A03DA504244F400540590DA
:1036700044F00204761C30782E2816D116F8010F7B
:1036800044F004042A280DD06FF02F023078A0F106
:103690003003092B09D807EB870302EB4303C71854
:1036A000761CF3E759F8047B761C30786C280FD031
:1036B00006DC4C2817D068280DD06A2814D104E005
:1036C000742810D07A280FD10DE044F400140AE0D9
:1036D00044F4801401E044F440147278824202D130
:1036E00004F58014761C761C307866280BD013DC29
:1036F000582877D009DC002875D04528F6D0462810
:10370000F4D047281AD19DE118E0632835D0642809
:1037100079D0652812D195E1702873D008DC67282C
:10372000F1D069286FD06E280DD06F2806D1B5E092
:1037300073282CD0752875D0782874D05A461799DC
:1037400090476D1C75E1C4F30250022809D003288C
:103750000DD0D9F8001004280DD00D6009F104092E
:1037600067E1D9F80010EA17C1E90052F6E7D9F885
:1037700000100D80F2E70D70F0E719F8041B8DF8CA
:10378000001000208DF80100EA46012003E059F8FE
:1037900004AB4FF0FF3061074FF0000102D40DE0A1
:1037A00008F101018846B9420FDA8045F8DB1AF8C2
:1037B00008100029F4D108E008F10101884681428F
:1037C000FADB1AF808100029F6D105985B46A0EB41
:1037D000080721463846179A00F094FA284400EB6F
:1037E000080507E04DE029E10DE01AF8010B5A4603
:1037F00017999047B8F10108F7D25B462146384641
:10380000179A13E142E00A220092C4F302524FF0E9
:10381000000A022A08D059F804CB032A4FEAEC71B7
:103820000AD00DE029E02AE009F1070121F00702A2
:10383000F2E802C1914609E00FFA8CFC4FEAEC7104
:10384000042A03D14FFA8CFC4FEAEC71002907DA05
:103850000A460021DCF1000C61EB02012D2202E09E
:10386000220504D52B228DF80420012203E0E20773
:1038700001D02022F7E7904659E00A2102E0102209
:103880000DE010214FF0000A00910BE010224FF0E4
:10389000000A44F004040827009203E008224FF0D5
:1038A000000A0092C4F30252022A05D059F804CB50
:1038B0000021032A08D009E009F1070121F00702DD
:1038C000F2E802C1914605E01FFA8CFC042A01D1FE
:1038D0000CF0FF0C4FF00008220728D5702806D006
:1038E000009B83F0100353EA0A0305D00EE0402248
:1038F0008DF80420012208E05CEA010206D03022A3
:103900008DF804208DF8050002229046009B83F07C
:10391000080353EA0A030AD15CEA010201D16207F3
:1039200005D530228DF804204FF001087F1E58285D
:1039300004D034A003900EA802900DE036A0F9E761
:1039400053466046009AFCF733FD84460398825C38
:103950000298401E029002705CEA0100F0D10298C9
:1039600006A9081A00F1200A600702D524F4803461
:1039700000E00127574502DDA7EB0A0000E0002028
:1039800000EB0A01009005984144401A0590E003BD
:1039900006D45B462146179A059800F0B3F9054412
:1039A000002706E001A85A46C05D179990476D1C94
:1039B0007F1C4745F6DBE0030CD55B462146179A92
:1039C000059800F09FF9054404E030205A46179905
:1039D00090476D1C0099481E00900029F5DC08E016
:1039E000029802995A460078491C0291179990470B
:1039F0006D1CBAF10001AAF1010AF1DC65E10000D9
:103A000009280100303132333435363738396162B4
:103A10006364656600000000303132333435363778
:103A200038394142434445460000000000F058F94F
:103A30000544761C307800287FF4ECAD19B0284698
:103A4000BDE8F08F620700D4062709F1070222F0D3
:103A5000070CFCE80223E14603F000485FEA080C8B
:103A600002D00FF2702C0DE05FEA045C02D50FF279
:103A7000682C07E05FEAC47C02D00FF2602C01E002
:103A8000AFF2700C4FF0FF3823F00043CDF850C078
:103A900065280CD006DC452809D046281DD04728CB
:103AA0003DD13DE0662818D067287ED138E000215E
:103AB000112F01DB112000E0781CCDE9000106A9DF
:103AC0000EA8FFF7DDFCDDE90F010E9A039100213E
:103AD000009207F1010A04914DE04FF00040009779
:103AE000CDE9011006A90EA8FFF7CAFCDDE90F0217
:103AF00003920E9B11990022DDF80CA00093049212
:103B000011B9791C00EB010AB7EB0A0004D4C0F12B
:103B1000FF3007F1010A0490AAEB0700019044E08E
:103B2000012F00DA01270021112F01DD112000E013
:103B30003846CDE9000106A90EA8FFF7A1FCDDE992
:103B40000F010E9A0391002104910092BA462107B9
:103B50000CD40399514500DA8A46BAF1010F05DD0C
:103B6000009AAAF10101515C302908D0B84202DA6A
:103B700010F1040F06DA0121CDE9011015E0AAF1D8
:103B80000101E9E7002805DC049901440491AAEB4E
:103B9000000102E0411C514500DD8A460499401AAB
:103BA000401C01904FF000400290200704D401987F
:103BB000504501DBCDF8048000208DF84F000298BD
:103BC0000DF14F07B0F1004F25D02B200E90029839
:103BD0004FF0020800280CDA404202902D200E908F
:103BE00007E00A210298FCF7CDFB3031029007F87C
:103BF000011DB8F10001A8F10108F2DC02980028CB
:103C0000EFD1791E0E980870307800F0200040F057
:103C1000450007F8020D12A8C01B00F10708149810
:103C2000007800B1012000EB0A01019801EBE0717E
:103C300005984144401A401E0590E00306D45B46B7
:103C40002146179A059800F05DF80544149800780D
:103C500018B15A46179990476D1CE00324D55B466E
:103C60002146179A059800F04DF805441CE0049889
:103C7000002807DBDDE90301884203DD0098405C92
:103C8000179901E0179930205A469047049805F19A
:103C90000105401C04900198401E019004D12E2083
:103CA0005A46179990476D1CBAF10001AAF1010A12
:103CB000DDDC05E017F8010B5A46179990476D1C9B
:103CC000B8F10001A8F10108F4DC5B462146179A1F
:103CD0000598ABE62D0000002B000000200000003E
:103CE0002DE9F041044600251E461746880404D4F9
:103CF00005E039462020B0476D1C641EF9D52846E2
:103D0000BDE8F0812DE9F041044600251E469046AD
:103D1000C80301D5302700E02027880404D505E03A
:103D200041463846B0476D1C641EF9D52846BDE8AB
:103D3000F081000013B54FF6FF7301226946024877
:103D4000FEF7B2FA00981CBD3407002008B5FDF755
:103D500065F8FFF7AAF8FEF75BFDFEF70FFEFEF72A
:103D600043FEFEF775FEFEF7B5FEFEF7E7FEFEF733
:103D700001FFFEF71BFFFEF7DBFDFEF75BFB0020FC
:103D8000FEF70EFBF8494FF0000847F6FF70A1F868
:103D90000080F64908800821F548FEF70BF80C2151
:103DA000F348FEF707F80021F248FDF739FE042139
:103DB000F048FDF735FE0021EF48FDF731FE042104
:103DC000ED48FDF72DFE0122EC49ED48FEF72CFAF7
:103DD000EA490122491EEB48FEF726FAE74CA41FE8
:103DE000E068FCF77BFA05466061A068FCF776FAAC
:103DF000DF4AA0611168CD631168086401221021B7
:103E0000E148FCF7F8FFE14FDFF88493DFF884A383
:103E1000DFF884B3D84EE1480078FCF75AFAE06145
:103E20000821DF48FCF7E2FF20613978012908D139
:103E300099F800104D46032904D0DA48007801288B
:103E40007DD0C2E22178084303D100F03DFC84F824
:103E500002802069012869D12078012843D100F02F
:103E600069FB9BF80000012808D14FF47A70FCF739
:103E700097FE00F029FC2078401C20709AF8001072
:103E800071B300BF00F056FB9AF800000028F9D18A
:103E90006078401CC0B26070022821D3C24800780C
:103EA00001280CD1A078D8B943F6982000F02EFC58
:103EB00045F2F05000F058FCA078401CA070BA48C1
:103EC000007802280CD1A07850B943F6982000F071
:103ED0001DFC45F2F05000F085FCA078401CA0705D
:103EE0002069012822D1207802280DD1AF4800781E
:103EF0000128A6D14AF6E03000F036FC2078401CBC
:103F000020702069012811D12078032899D100F070
:103F100011FB9BF80000012808D14FF47A70FCF7E0
:103F20003FFE00F0D1FB2078401C20702069002863
:103F300087D1207804280BD14AF6E03000E026E053
:103F400000F012FC2078401C207020690028D0D19D
:103F500020780528CDD100F0EDFA934800780228AA
:103F600002D0012809D023E228780328FBD1E07889
:103F70000028F8D100F0A6FA1AE228780328F2D136
:103F8000E0780028EFD100BF00F064FA10E220785A
:103F900000280DD1A07860B1012822D002282DD0B0
:103FA000032834D0042835D005286ED006286DD0DB
:103FB00079E100F0BFFA607808B100F083FA9AF86E
:103FC000000055460028F3D0794800780128EFD149
:103FD00000F0B0FA28780028FAD16078401C6070B0
:103FE00061E100F0A7FA9BF800000128E0D14FF44E
:103FF000C870FCF7D5FD00F067FB51E16B48007815
:104000000128D5D14AF6E03000F0AEFB48E100F0DF
:1040100091FA30E100F08EFA664D2878012801D13E
:1040200000F050FA2878022801D100F013FA614814
:104030000078032858D19AF8000055460028B7D0D8
:1040400000F078FA28780028FAD15A480078012838
:1040500006D002280DD0032819D0042828D0D1E09A
:1040600043F6504000F052FB45F2F05000F0BAFB2E
:1040700007E043F6504000F049FB45F2F05000F0F5
:1040800073FBA078401CA0702EE0EBE0F9E04A48FA
:10409000A060E0603168C1F824804FF4616501E000
:1040A00000F048FA3068406A00B2A842F8DB18E035
:1040B00043F6504000F02AFB45F2F05000F054FB6C
:1040C0003D48A060E0603168C1F824804FF461652C
:1040D00002E000BF00F02EFA3068406A00B2A84249
:1040E000F8DB3648A060E0603248007804283AD116
:1040F0009AF80000554620B300F01CFA28780028F2
:10410000FAD12C4D2878012802D0022809D013E0DA
:1041100043F6504000F0FAFA45F2F05000F062FB2E
:1041200007E043F6504000F0F1FA45F2F05000F09D
:104130001BFBA078401CA0702878042802D005281A
:1041400046D0B0E043F6504000F0E0FA45F2F050BF
:1041500000F00AFB1848A060E0603168C1F82480D4
:104160004FF461652EE04DE0420000204000002049
:104170001C060020D4050020640600204A00002010
:1041800034070020AC060020000801403300002066
:10419000320000203F0000203C0000203B000020B7
:1041A0000010014030000020310000202F000020CE
:1041B0002E0000202C000020000096430000344315
:1041C00000F0B8F93068406A00B2A842F8DB16E0A7
:1041D0004AF6E03000F0C8FAA078401CA07097487A
:1041E000A060E0603168C1F824804FF4FA5501E026
:1041F00000F0A0F93068406A00B2A842F8DB9048AD
:10420000A060E0608F48007805284CD19AF8000043
:10421000554618B300F08EF928780028FAD189485D
:10422000007805281AD14AF6E03000F09DFAA0780F
:10423000401CA0708148A060E0603168C1F8248013
:104240004FF4FA5502E000BF00F074F93068406A9C
:1042500000B2A842F8DB7A48A060E0603220FCF7A8
:104260009FFC20E000F066F977480078012802D032
:10427000022803D017E000F025F914E000F0EAF876
:1042800011E000F057F99BF8000001280BD14FF422
:104290007A70FCF785FC00F017FA2078401C20703B
:1042A000A078401CA070206901286ED120780228D7
:1042B0000ED13220FCF774FC4AF6E03000F054FADC
:1042C0002078401C207084F80380206901287CD16C
:1042D0002078032879D100F02DF95A480078022877
:1042E00002D0012830D063E057480078022802D07D
:1042F000012817D05CE0E07800283FF43BAE0128AD
:1043000002D0022803D053E000F0DCF840E09AF835
:104310000000554680B300BF00F00CF92878002853
:10432000FAD142E0E07800283FF42EAE0128EBD02D
:1043300002283DD19AF800005546E8B100F0FAF89D
:1043400028780028FAD130E03F480078012802D0D0
:10435000022812D02CE0E0780028E5D0012815D002
:10436000022825D19AF80000554628B100F0E2F85D
:1043700028780028FAD118E01AE0E0780028BCD0AC
:10438000012803D0022807D012E01EE000F062F8F6
:104390002E48A060E0600BE09AF80000554638B166
:1043A00000F0C8F828780028FAD12079401C207144
:1043B0009BF80000012808D14FF4C870FCF7F0FB0F
:1043C00000F082F92078401C20700C2500953068A0
:1043D000406A052302B20F210020FEF7B3F91C4802
:1043E00000950068406A052302B20F211E20FEF7E7
:1043F000A9F900950021052308466269FEF7A2F994
:104400000095052300211E20A269FEF79BF9009567
:1044100005232D2100202269FEF794F9009505233C
:1044200022782D211E20FEF78DF900950523627854
:104430002D213C20FEF786F9EDE400000000C84382
:10444000000034432C0000202D0000200000964383
:10445000D405002010B5144C2078002822D000BFCD
:1044600000F068F820780028FAD100F02DF9104902
:104470000E4808600F4908600F49B4200A68D063ED
:104480000968086443F6504000F040F945F2F050E6
:1044900000F06AF909490878401C08700849087852
:1044A000401C087010BD00003F0000200000344395
:1044B000500000204C0000201C0600204600002078
:1044C0004700002010B5144C2078002822D000BFEF
:1044D00000F030F820780028FAD100F0F5F8104903
:1044E0000E4808600F4908600F49B4200A68D0637D
:1044F0000968086443F6504000F008F945F2F050AE
:1045000000F070F909490878401C087008490878DB
:10451000401C087010BD00003F0000200000344324
:10452000500000204C0000201C0600204600002007
:10453000470000202DE9F05F3D48DFF8FC803F4D4B
:1045400001783C48DFF8FC903F4E02683C48DFF8B9
:10455000FCA03F4C0078914203DA3E4A1268914237
:1045600050DCFBF7B6FE07463B480068FBF7A8FEA9
:104570003946FEF7D7FB3948016830688346FBF7B8
:1045800015FEFBF7ABFE07462060D8F80000FBF7EE
:10459000A5FEC9F80000C846D14651465846FBF76B
:1045A00005FE82463846FBF78BFE5146FBF7E0FEE0
:1045B00006D249463068FBF7F9FDFBF78FFE206015
:1045C00049463068FBF744FE07462068FBF778FE53
:1045D0003946FBF7C3FE06D249463068FBF738FE82
:1045E000FBF77CFE20602868D8F80010C1632A68B9
:1045F000206810641AA0FEF713FF1DA02168FEF7C3
:104600000FFF11E0503814280ED83068FBF766FE13
:1046100020600446D8F80000FBF760FEC9F80000EF
:104620002968C86328680464BDE8F05F00F028B812
:104630003B00002020000020500000201C0600202D
:104640003E000020580000204C000020000048429E
:104650005C00002028000020240000201C00002016
:104660004D6F746F724F7574707574313A256400B4
:104670004D6F746F724F7574707574323A256400A3
:1046800010B50122D1030D48FCF7B5FB00224FF411
:1046900000710B48FCF7AFFB0A4C00224FF400619D
:1046A0002046FCF7A8FB012211032046FCF7A3FBE0
:1046B000BDE810401420FCF773BA00000008014068
:1046C00000100140000C014010B50122D1030C483C
:1046D000FCF791FB012251020A48FCF78CFB0A4CC3
:1046E0000122D1022046FCF786FB0122110320465D
:1046F000FCF781FBBDE810401420FCF751BA000024
:104700000008014000100140000C0140F8B5134CB6
:10471000054600262068466211480068FBF7F7FD51
:1047200010490A68D06309680864FFF7A9FF0C27DD
:1047300006E00097426A05230F210020FEF702F8E9
:104740002068416AA942F4D3FFF7BEFF20684662A1
:10475000BDE8F8406420FCF723BA0000640600209E
:104760004C0000201C0600202DE9F843184C05469B
:104770000026206846623220FCF712FA15480068CD
:10478000FBF7C5FD144F3968C86314480068FBF790
:10479000BEFD3968086400F059F84FF00C08104F5E
:1047A00008E000BFCDF80080426A05230F210020F9
:1047B000FDF7C8FF2068416A791AA942F2D3FFF7D2
:1047C00083FF20684662BDE8F8436420FCF7E8B93F
:1047D00064060020500000201C0600204C00002031
:1047E000DF060100F8B5154C054600262068466234
:1047F00013480068FBF78BFD124F3968C8631248F5
:104800000068FBF784FD3968086400F041F80C2764
:1048100006E00097426A05230F210020FDF792FF72
:104820002068416AA942F4D3FFF74EFF2068466230
:10483000BDE8F8406420FCF7B3B90000640600202E
:10484000500000201C0600204C00002010B5012262
:10485000D1030C48FCF7CFFA00224FF400710A484C
:10486000FCF7C9FA094C0122D1022046FCF7C3FA31
:104870000022A1142046FCF7BEFABDE81040142027
:10488000FCF78EB90008014000100140000C014007
:1048900010B500224FF400410C48FCF7ACFA01229D
:1048A00051020B48FCF7A7FA0A4C00224FF40061B2
:1048B0002046FCF7A0FA012211032046FCF79BFAE0
:1048C000BDE810401420FCF76BB90000000801405F
:1048D00000100140000C014000000000000000003A
:1048E0000000000000002020202020000020000008
:1048F0002828500000000000000000000000505078
:10490000F85050F850500000002070A8A0603028E7
:10491000A8702000000048A8B0A8743454480000D3
:1049200000002050506CA8A894680000404080000F
:1049300000000000000000000810102020202020AF
:1049400010100800402020101010101020204000EF
:1049500000000020A87070A82000000000000010D7
:10496000107C10100000000000000000000000009B
:10497000404080000000000000FC0000000000003B
:1049800000000000000000000040000000040808D3
:10499000101020204040800000007088888888889F
:1049A000887000000000206020202020207000007F
:1049B000000070888810204080F800000000708897
:1049C000083008088870000000001030305090F85F
:1049D000103800000000F88080F08808887000001F
:1049E0000000304880B0C888887000000000780857
:1049F0001010202020200000000070888870888817
:104A00008870000000007088889868089060000036
:104A10000000000020000000002000000000000056
:104A2000002000000020200000000810204040204E
:104A30001008000000000000FC00FC000000000066
:104A4000000040201008081020400000000070887E
:104A500088102020002000000000384494B4B4B82E
:104A600044380000000020203050507848CC00002E
:104A70000000F0484870484848F00000000078887E
:104A800080808080887000000000F04848484848D6
:104A900048F000000000F8485070504048F800000E
:104AA0000000F8485070504040E0000000003848D6
:104AB00080809C88483000000000CC4848784848F6
:104AC00048CC00000000F8202020202020F8000022
:104AD00000007C1010101010101090E00000EC4846
:104AE0005060504848EC00000000E040404040402A
:104AF00044FC00000000DCD8D8D8A8A8A8AC00006E
:104B00000000DC486868585848E8000000007088D9
:104B100088888888887000000000F048487040400D
:104B200040E0000000007088888888E898701800CD
:104B30000000F0484870504848EC000000007888B9
:104B40008060100888F000000000F8A820202020D5
:104B5000207000000000CC48484848484830000019
:104B60000000CC4848505030202000000000A8A889
:104B7000A8A87050505000000000D850502020507D
:104B800050D800000000D850505020202070000065
:104B90000000F8901020204048F800003820202025
:104BA000202020202020380000404020202010100D
:104BB0001008080070101010101010101010700065
:104BC0002050000000000000000000000000000075
:104BD00000000000000000FC402000000000000079
:104BE000000000000000000000304838483C000091
:104BF00000C040404070484848700000000000007D
:104C00000038484048300000001808080838484874
:104C1000483C0000000000000030487840380000A8
:104C200000182420207820202078000000000000B8
:104C3000003C48304038443800C04040407048484C
:104C400048EC0000002020000060202020700000C0
:104C50000010100000301010101010E000C0404094
:104C60004058506050C8000000E020202020202044
:104C700020F800000000000000F0A8A8A8A800008C
:104C80000000000000F0484848EC00000000000070
:104C900000304848483000000000000000F048485C
:104CA000487040E000000000003848484838081CC0
:104CB0000000000000D8604040E00000000000005C
:104CC0000078403008780000000000202078202084
:104CD000203800000000000000D84848483C000090
:104CE0000000000000D8505020200000000000000C
:104CF00000A8A870505000000000000000D850200C
:104D000050D800000000000000CC4848301020C0FF
:104D1000000000000078102020780000181010100B
:104D2000103010101010180010101010101010106B
:104D30001010101060202020201020202020600063
:104D4000689000000000000000000000000000006B
:104D50000000000000000000000000000000001043
:104D60001010101010100000101000000012242469
:104D700048000000000000000000000000000012D9
:104D800012127E2424247E24242400000000083CE7
:104D90004A4A48380C0A0A4A4A3C080800000044BB
:104DA000A4A8A8B0541A2A2A4A44000000000030DF
:104DB000484848506EA494988976000000602020EE
:104DC0004000000000000000000000000002040895
:104DD00008101010101010080804020000402010E5
:104DE0001008080808080810102040000000000003
:104DF0001010D63838D61010000000000000000057
:104E0000000808087F0808080000000000000000F3
:104E100000000000000000006020204000000000B2
:104E2000000000007E000000000000000000000004
:104E300000000000000000006060000000000204AC
:104E40000404080810101020204040000000001842
:104E5000244242424242424224180000000000081C
:104E60003808080808080808083E00000000003C50
:104E70004242420204081020427E00000000003C32
:104E80004242020418040242423C000000000004B6
:104E90000C0C142424447F04041F00000000007E36
:104EA00040404078440202424438000000000018AC
:104EB0002440405C62424242221C00000000007E0E
:104EC0004204040808101010101000000000003CFC
:104ED0004242422418244242423C00000000003872
:104EE00044424242463A02022418000000000000F8
:104EF0000000181800000000181800000000000052
:104F0000000000100000000000101010000000025F
:104F100004081020402010080402000000000000D7
:104F200000007E00007E0000000000000000004045
:104F30002010080402040810204000000000003C7B
:104F400042426204080808001818000000000038F7
:104F5000445AAAAAAAAAAA5C423C00000000001077
:104F600010182828243C444242E70000000000F8C2
:104F7000444444784442424244F800000000003E69
:104F8000424280808080804244380000000000F867
:104F9000444242424242424244F80000000000FCC7
:104FA000424848784848404242FC0000000000FC6B
:104FB000424848784848404040E000000000003C3B
:104FC00044448080808E844444380000000000E720
:104FD000424242427E42424242E700000000007CE0
:104FE0001010101010101010107C00000000003E77
:104FF0000808080808080808080888F0000000EEFB
:10500000444850705048484444EE0000000000E01E
:10501000404040404040404042FE0000000000EE62
:105020006C6C6C6C6C54545454D60000000000C777
:10503000626252524A4A4A4646E200000000003884
:10504000448282828282828244380000000000FC16
:10505000424242427C40404040E0000000000038B4
:1050600044828282828282B24C380600000000FCB8
:105070004242427C4848444442E300000000003E73
:105080004242402018040242427C0000000000FE20
:10509000921010101010101010380000000000E7DF
:1050A0004242424242424242423C0000000000E78B
:1050B000424244242428281810100000000000D682
:1050C00054545454546C282828280000000000E749
:1050D000422424181818242442E70000000000EE9F
:1050E0004444282810101010103800000000007EE2
:1050F000840408081020204242FC0000001E10100A
:10510000101010101010101010101E000000402081
:105110002020101010080804040402020078080877
:10512000080808080808080808087800001824007B
:10513000000000000000000000000000000000006F
:105140000000000000000000000000FF00601000F0
:10515000000000000000000000000000000000004F
:1051600000000038440C34444C36000000000000BD
:10517000C0404058644242426458000000000000B1
:105180000000001C22404040221C000000000000E3
:105190000602023E42424242463B0000000000003E
:1051A0000000003C42427E40423C00000000000003
:1051B0000C12107C10101010107C00000000000079
:1051C0000000003E444438403C42423C00000000A5
:1051D000C040405C6242424242E7000000000030B2
:1051E0003000007010101010107C00000000000C47
:1051F0000C00001C040404040404447800000000B3
:10520000C040404E4850704844EE0000000000107E
:105210007010101010101010107C00000000000022
:10522000000000FE4949494949ED00000000000026
:10523000000000DC6242424242E700000000000041
:105240000000003C42424242423C0000000000009C
:10525000000000D864424242645840E00000000070
:105260000000001A26424242261A020700000000EF
:10527000000000EE3220202020F800000000000096
:105280000000003E42403C02427C00000000000062
:105290000010107C10101010120C00000000000014
:1052A000000000C642424242463B000000000000AF
:1052B000000000EE44442828101000000000000008
:1052C000000000DB894A5A5424240000000000003A
:1052D0000000007624181818246E0000000000005A
:1052E000000000E74224241818101060000000009D
:1052F0000000007E44081010227E00000003040419
:10530000040404040804040404040300080808084E
:1053100008080808080808080808080800C020202D
:1053200020202020102020202020C000205A04000F
:10533000000000000000000000000000000000006D
:10534000000000000000000000000000000000005D
:10535000000000000000000000000000000000004D
:10536000000000000000000000000000000000003D
:105370000000000006000600060006000600060009
:105380000600020004000400040000000000000009
:1053900006000600060000000000000000000000FB
:1053A000066006600CC01980110022000000000099
:1053B00000000000000000000000000000000000ED
:1053C00000000000000000000000000000000000DD
:1053D0000000000008400840084008407FE07FE0EF
:1053E000104010801080108010807FE07FE02080CF
:1053F00020802080208000000000000000000000CD
:105400000000020002000F801AC032C033C0320018
:105410001A000E0007000380038002C032C03AC0A9
:1054200032C012800F0002000200000000000000E5
:1054300000000000708050808900890089008A0087
:105440008A005C0075C005400A200A201220122044
:105450001220214021C000000000000000000000D8
:10546000000000001C003600360036003600360012
:10547000340019E038805880CC80CC80C680C700CA
:10548000C31063903CE0000000000000000000003A
:105490003000380008000800100020000000000064
:1054A00000000000000000000000000000000000FC
:1054B00000000000000000000000000000000000EC
:1054C00000200040008001000100020002000400F2
:1054D00004000400040004000400040002000200B0
:1054E00001000100008000400020000000000000DA
:1054F0004000200010000800080004000400020022
:105500000200020002000200020002000400040087
:10551000080008001000200040000000000000000B
:1055200000000000000000000200030002006230E2
:1055300072F00B800F807AF06230020002000200ED
:10554000000000000000000000000000000000005B
:105550000000000000000000000002000200020045
:10556000020002007FF002000200020002000200BE
:10557000000000000000000000000000000000002B
:10558000000000000000000000000000000000001B
:10559000000000000000000000000000000000000B
:1055A0003000380008000800100020000000000053
:1055B00000000000000000000000000000000000EB
:1055C000000000007FE0000000000000000000007C
:1055D00000000000000000000000000000000000CB
:1055E00000000000000000000000000000000000BB
:1055F00000000000000000000000000000000000AB
:1056000038003800380000000000000000000000F2
:1056100000200060004000C0008000800100010008
:105620000200020006000400040008000800100048
:10563000100030002000600040000000000000006A
:105640000000000000000F00198030C030C0606012
:10565000606060606060606060606060606030C01A
:1056600030C019800F0000000000000000000000A2
:1056700000000000000002003E00060006000600D8
:1056800006000600060006000600060006000600EA
:10569000060006003FC000000000000000000000FF
:1056A0000000000000001F00218040C060C060C0FA
:1056B00000C00080018003000600040008001040C4
:1056C000204060407FC0000000000000000000009B
:1056D0000000000000001E00630061806180018006
:1056E000018003000E000180008000C000C060C087
:1056F00060C061801F00000000000000000000008A
:10570000000000000000018001800380058005800A
:10571000098011801180218041807FF0018001800B
:105720000180018007E00000000000000000000090
:105730000000000000003FC02000200020002000EA
:1057400020002F00318020C000C000C060C060C0B9
:10575000418021801F0000000000000000000000C8
:10576000000000000000078018C030C0300020009A
:105770006000678068C0706060606060606020602A
:10578000304018C00F0000000000000000000000C2
:105790000000000000001FE03060204020800080FA
:1057A0000080010001000200020002000600060065
:1057B00006000600060000000000000000000000D7
:1057C0000000000000001F8030C06060606060600A
:1057D000304038C00F00138030C06060606060608F
:1057E000606030C00F80000000000000000000007A
:1057F0000000000000000F00308030C0604060609A
:105800006060606060E031601E60006000C000C0E9
:10581000308031801E000000000000000000000009
:105820000000000000000000000000000000000078
:105830000700070007000000000000000000000053
:105840000700070007000000000000000000000043
:105850000000000000000000000000000000000048
:10586000060006000000000000000000000000002C
:105870000000060006000200040004000000000012
:105880000000000000200040008001000200040031
:1058900008001000200010000800040002000100B1
:1058A0000080004000200000000000000000000018
:1058B00000000000000000000000000000000000E8
:1058C0007FE00000000000007FE00000000000001A
:1058D00000000000000000000000000000000000C8
:1058E0000000000020001000080004000200010079
:1058F0000080004000200040008001000200040001
:10590000080010002000000000000000000000005F
:1059100000000000000007C0186020302030303048
:10592000303000E0018002000200020000000000B0
:105930000700070007000000000000000000000052
:1059400000000000070018C0304033A026A066A069
:1059500065A06D206D206D206D206D40278030206A
:10596000304018C00F0000000000000000000000E0
:10597000000000000000060006000A000B000900FD
:1059800009001100118010801F8020C020C020401D
:1059900040404060F0F00000000000000000000007
:1059A0000000000000007F0031C030C030C030C0B7
:1059B00030C031803F0030C03040306030603060F7
:1059C000306030C07F800000000000000000000058
:1059D00000000000000007C018C030603020202008
:1059E00060006000600060006000600060203020A7
:1059F000304018C00F000000000000000000000050
:105A0000000000000000FE00318030C030C0306077
:105A1000306030603060306030603060306030C0A6
:105A200030C03180FE0000000000000000000000D7
:105A3000000000000000FFC060C060206020600027
:105A4000610061007F006100610061006000602012
:105A500060206040FFC00000000000000000000067
:105A6000000000000000FFC060C0602060206000F7
:105A7000610061007F006100610061006000600002
:105A800060006000F800000000000000000000005E
:105A90000000000000000F0018803040304020401F
:105AA000600060006000600063F060C060C030C0F3
:105AB00030C018C00F00000000000000000000000F
:105AC000000000000000F0F06060606060606060F6
:105AD000606060607FE06060606060606060606027
